{
  "contractName": "Facito",
  "abi": [
    {
      "constant": true,
      "inputs": [],
      "name": "name",
      "outputs": [
        {
          "name": "",
          "type": "string"
        }
      ],
      "payable": false,
      "stateMutability": "view",
      "type": "function"
    },
    {
      "constant": true,
      "inputs": [],
      "name": "totalSupply",
      "outputs": [
        {
          "name": "",
          "type": "uint256"
        }
      ],
      "payable": false,
      "stateMutability": "view",
      "type": "function"
    },
    {
      "constant": true,
      "inputs": [],
      "name": "decimals",
      "outputs": [
        {
          "name": "",
          "type": "uint8"
        }
      ],
      "payable": false,
      "stateMutability": "view",
      "type": "function"
    },
    {
      "constant": true,
      "inputs": [
        {
          "name": "",
          "type": "bytes32"
        }
      ],
      "name": "articles",
      "outputs": [
        {
          "name": "Title",
          "type": "string"
        },
        {
          "name": "ID",
          "type": "bytes32"
        },
        {
          "name": "Content",
          "type": "string"
        },
        {
          "name": "HeaderSource",
          "type": "string"
        },
        {
          "name": "Author",
          "type": "address"
        },
        {
          "name": "BlockNumber",
          "type": "uint256"
        },
        {
          "name": "Views",
          "type": "uint256"
        },
        {
          "name": "Upvotes",
          "type": "uint256"
        },
        {
          "name": "Downvotes",
          "type": "uint256"
        }
      ],
      "payable": false,
      "stateMutability": "view",
      "type": "function"
    },
    {
      "constant": true,
      "inputs": [
        {
          "name": "",
          "type": "address"
        }
      ],
      "name": "balanceOf",
      "outputs": [
        {
          "name": "",
          "type": "uint256"
        }
      ],
      "payable": false,
      "stateMutability": "view",
      "type": "function"
    },
    {
      "constant": true,
      "inputs": [],
      "name": "baseReward",
      "outputs": [
        {
          "name": "",
          "type": "uint256"
        }
      ],
      "payable": false,
      "stateMutability": "view",
      "type": "function"
    },
    {
      "constant": true,
      "inputs": [],
      "name": "symbol",
      "outputs": [
        {
          "name": "",
          "type": "string"
        }
      ],
      "payable": false,
      "stateMutability": "view",
      "type": "function"
    },
    {
      "constant": true,
      "inputs": [
        {
          "name": "",
          "type": "address"
        },
        {
          "name": "",
          "type": "address"
        }
      ],
      "name": "allowance",
      "outputs": [
        {
          "name": "",
          "type": "uint256"
        }
      ],
      "payable": false,
      "stateMutability": "view",
      "type": "function"
    },
    {
      "inputs": [
        {
          "name": "_initialSupply",
          "type": "uint256"
        }
      ],
      "payable": false,
      "stateMutability": "nonpayable",
      "type": "constructor"
    },
    {
      "anonymous": false,
      "inputs": [
        {
          "indexed": true,
          "name": "_from",
          "type": "address"
        },
        {
          "indexed": true,
          "name": "_to",
          "type": "address"
        },
        {
          "indexed": false,
          "name": "_value",
          "type": "uint256"
        }
      ],
      "name": "Transfer",
      "type": "event"
    },
    {
      "anonymous": false,
      "inputs": [
        {
          "indexed": true,
          "name": "_owner",
          "type": "address"
        },
        {
          "indexed": true,
          "name": "_spender",
          "type": "address"
        },
        {
          "indexed": false,
          "name": "_value",
          "type": "uint256"
        }
      ],
      "name": "Approve",
      "type": "event"
    },
    {
      "anonymous": false,
      "inputs": [
        {
          "indexed": false,
          "name": "_ID",
          "type": "bytes32"
        },
        {
          "indexed": false,
          "name": "_author",
          "type": "address"
        },
        {
          "indexed": false,
          "name": "_title",
          "type": "string"
        }
      ],
      "name": "NewArticle",
      "type": "event"
    },
    {
      "anonymous": false,
      "inputs": [
        {
          "indexed": false,
          "name": "_ID",
          "type": "bytes32"
        },
        {
          "indexed": false,
          "name": "_author",
          "type": "address"
        },
        {
          "indexed": false,
          "name": "_reader",
          "type": "address"
        },
        {
          "indexed": false,
          "name": "_title",
          "type": "string"
        }
      ],
      "name": "ReadArticle",
      "type": "event"
    },
    {
      "anonymous": false,
      "inputs": [
        {
          "indexed": false,
          "name": "_ID",
          "type": "bytes32"
        },
        {
          "indexed": false,
          "name": "_author",
          "type": "address"
        },
        {
          "indexed": false,
          "name": "_upvoter",
          "type": "address"
        },
        {
          "indexed": false,
          "name": "_content",
          "type": "string"
        }
      ],
      "name": "UpvotedPost",
      "type": "event"
    },
    {
      "anonymous": false,
      "inputs": [
        {
          "indexed": false,
          "name": "_ID",
          "type": "bytes32"
        },
        {
          "indexed": false,
          "name": "_author",
          "type": "address"
        },
        {
          "indexed": false,
          "name": "_downvoter",
          "type": "address"
        },
        {
          "indexed": false,
          "name": "_content",
          "type": "string"
        }
      ],
      "name": "DownvotedPost",
      "type": "event"
    },
    {
      "anonymous": false,
      "inputs": [
        {
          "indexed": false,
          "name": "_message",
          "type": "string"
        },
        {
          "indexed": false,
          "name": "sender",
          "type": "address"
        },
        {
          "indexed": false,
          "name": "_ID",
          "type": "bytes32"
        }
      ],
      "name": "ArticleError",
      "type": "event"
    },
    {
      "constant": false,
      "inputs": [
        {
          "name": "_to",
          "type": "address"
        },
        {
          "name": "_value",
          "type": "uint256"
        }
      ],
      "name": "transfer",
      "outputs": [
        {
          "name": "success",
          "type": "bool"
        }
      ],
      "payable": false,
      "stateMutability": "nonpayable",
      "type": "function"
    },
    {
      "constant": false,
      "inputs": [
        {
          "name": "_spender",
          "type": "address"
        },
        {
          "name": "_value",
          "type": "uint256"
        }
      ],
      "name": "approve",
      "outputs": [
        {
          "name": "success",
          "type": "bool"
        }
      ],
      "payable": false,
      "stateMutability": "nonpayable",
      "type": "function"
    },
    {
      "constant": false,
      "inputs": [
        {
          "name": "_from",
          "type": "address"
        },
        {
          "name": "_to",
          "type": "address"
        },
        {
          "name": "_value",
          "type": "uint256"
        }
      ],
      "name": "transferFrom",
      "outputs": [
        {
          "name": "success",
          "type": "bool"
        }
      ],
      "payable": false,
      "stateMutability": "nonpayable",
      "type": "function"
    },
    {
      "constant": false,
      "inputs": [
        {
          "name": "_title",
          "type": "string"
        },
        {
          "name": "_content",
          "type": "string"
        },
        {
          "name": "_headerSource",
          "type": "string"
        }
      ],
      "name": "newArticle",
      "outputs": [
        {
          "name": "success",
          "type": "bool"
        }
      ],
      "payable": false,
      "stateMutability": "nonpayable",
      "type": "function"
    },
    {
      "constant": false,
      "inputs": [
        {
          "name": "_id",
          "type": "bytes32"
        }
      ],
      "name": "readArticle",
      "outputs": [
        {
          "name": "success",
          "type": "bool"
        }
      ],
      "payable": false,
      "stateMutability": "nonpayable",
      "type": "function"
    },
    {
      "constant": false,
      "inputs": [
        {
          "name": "_postID",
          "type": "bytes32"
        },
        {
          "name": "_threadID",
          "type": "bytes32"
        },
        {
          "name": "_content",
          "type": "string"
        }
      ],
      "name": "newComment",
      "outputs": [
        {
          "name": "success",
          "type": "bool"
        }
      ],
      "payable": false,
      "stateMutability": "nonpayable",
      "type": "function"
    },
    {
      "constant": false,
      "inputs": [
        {
          "name": "_id",
          "type": "bytes32"
        }
      ],
      "name": "upvotePost",
      "outputs": [],
      "payable": false,
      "stateMutability": "nonpayable",
      "type": "function"
    },
    {
      "constant": false,
      "inputs": [
        {
          "name": "_id",
          "type": "bytes32"
        }
      ],
      "name": "downvotePost",
      "outputs": [],
      "payable": false,
      "stateMutability": "nonpayable",
      "type": "function"
    },
    {
      "constant": false,
      "inputs": [
        {
          "name": "_commentID",
          "type": "bytes32"
        },
        {
          "name": "_threadID",
          "type": "bytes32"
        },
        {
          "name": "_articleID",
          "type": "bytes32"
        }
      ],
      "name": "upvoteComment",
      "outputs": [],
      "payable": false,
      "stateMutability": "nonpayable",
      "type": "function"
    },
    {
      "constant": false,
      "inputs": [
        {
          "name": "_commentID",
          "type": "bytes32"
        },
        {
          "name": "_threadID",
          "type": "bytes32"
        },
        {
          "name": "_articleID",
          "type": "bytes32"
        }
      ],
      "name": "downvoteComment",
      "outputs": [],
      "payable": false,
      "stateMutability": "nonpayable",
      "type": "function"
    }
  ],
  "bytecode": "0x608060405234801561001057600080fd5b506040516020806145ab833981018060405281019080805190602001909291905050506012600a1860ff168102905080600360003073ffffffffffffffffffffffffffffffffffffffff1673ffffffffffffffffffffffffffffffffffffffff16815260200190815260200160002081905550806000819055506012600a1860010260ff1660018190555050614500806100ab6000396000f3006080604052600436106100fc576000357c0100000000000000000000000000000000000000000000000000000000900463ffffffff16806306fdde0314610101578063095ea7b31461019157806318160ddd146101f657806323b872dd146102215780632d776793146102a6578063313ce567146102f357806351da8a4f1461032457806370a082311461050457806376ad03bc1461055b57806395d89b4114610586578063a042b9c114610616578063a3b2c41e146106b3578063a54ff9ac146106fc578063a9059cbb1461072d578063c3df99b614610792578063dd62ed3e146107df578063e2fc269114610856578063e503f70d14610887575b600080fd5b34801561010d57600080fd5b50610116610994565b6040518080602001828103825283818151815260200191508051906020019080838360005b8381101561015657808201518184015260208101905061013b565b50505050905090810190601f1680156101835780820380516001836020036101000a031916815260200191505b509250505060405180910390f35b34801561019d57600080fd5b506101dc600480360381019080803573ffffffffffffffffffffffffffffffffffffffff169060200190929190803590602001909291905050506109cd565b604051808215151515815260200191505060405180910390f35b34801561020257600080fd5b5061020b610abf565b6040518082815260200191505060405180910390f35b34801561022d57600080fd5b5061028c600480360381019080803573ffffffffffffffffffffffffffffffffffffffff169060200190929190803573ffffffffffffffffffffffffffffffffffffffff16906020019092919080359060200190929190505050610ac5565b604051808215151515815260200191505060405180910390f35b3480156102b257600080fd5b506102f1600480360381019080803560001916906020019092919080356000191690602001909291908035600019169060200190929190505050610e06565b005b3480156102ff57600080fd5b50610308611542565b604051808260ff1660ff16815260200191505060405180910390f35b34801561033057600080fd5b506103536004803603810190808035600019169060200190929190505050611547565b60405180806020018a6000191660001916815260200180602001806020018973ffffffffffffffffffffffffffffffffffffffff1673ffffffffffffffffffffffffffffffffffffffff16815260200188815260200187815260200186815260200185815260200184810384528d818151815260200191508051906020019080838360005b838110156103f35780820151818401526020810190506103d8565b50505050905090810190601f1680156104205780820380516001836020036101000a031916815260200191505b5084810383528b818151815260200191508051906020019080838360005b8381101561045957808201518184015260208101905061043e565b50505050905090810190601f1680156104865780820380516001836020036101000a031916815260200191505b5084810382528a818151815260200191508051906020019080838360005b838110156104bf5780820151818401526020810190506104a4565b50505050905090810190601f1680156104ec5780820380516001836020036101000a031916815260200191505b509c5050505050505050505050505060405180910390f35b34801561051057600080fd5b50610545600480360381019080803573ffffffffffffffffffffffffffffffffffffffff16906020019092919050505061177d565b6040518082815260200191505060405180910390f35b34801561056757600080fd5b50610570611795565b6040518082815260200191505060405180910390f35b34801561059257600080fd5b5061059b61179b565b6040518080602001828103825283818151815260200191508051906020019080838360005b838110156105db5780820151818401526020810190506105c0565b50505050905090810190601f1680156106085780820380516001836020036101000a031916815260200191505b509250505060405180910390f35b34801561062257600080fd5b5061069960048036038101908080356000191690602001909291908035600019169060200190929190803590602001908201803590602001908080601f01602080910402602001604051908101604052809392919081815260200183838082843782019150505050505091929192905050506117d4565b604051808215151515815260200191505060405180910390f35b3480156106bf57600080fd5b506106e26004803603810190808035600019169060200190929190505050611a5d565b604051808215151515815260200191505060405180910390f35b34801561070857600080fd5b5061072b60048036038101908080356000191690602001909291905050506123f6565b005b34801561073957600080fd5b50610778600480360381019080803573ffffffffffffffffffffffffffffffffffffffff16906020019092919080359060200190929190505050612900565b604051808215151515815260200191505060405180910390f35b34801561079e57600080fd5b506107dd600480360381019080803560001916906020019092919080356000191690602001909291908035600019169060200190929190505050612ac2565b005b3480156107eb57600080fd5b50610840600480360381019080803573ffffffffffffffffffffffffffffffffffffffff169060200190929190803573ffffffffffffffffffffffffffffffffffffffff169060200190929190505050613654565b6040518082815260200191505060405180910390f35b34801561086257600080fd5b506108856004803603810190808035600019169060200190929190505050613679565b005b34801561089357600080fd5b5061097a600480360381019080803590602001908201803590602001908080601f0160208091040260200160405190810160405280939291908181526020018383808284378201915050505050509192919290803590602001908201803590602001908080601f0160208091040260200160405190810160405280939291908181526020018383808284378201915050505050509192919290803590602001908201803590602001908080601f0160208091040260200160405190810160405280939291908181526020018383808284378201915050505050509192919290505050613f65565b604051808215151515815260200191505060405180910390f35b6040805190810160405280600681526020017f46616369746f000000000000000000000000000000000000000000000000000081525081565b600081600460003373ffffffffffffffffffffffffffffffffffffffff1673ffffffffffffffffffffffffffffffffffffffff16815260200190815260200160002060008573ffffffffffffffffffffffffffffffffffffffff1673ffffffffffffffffffffffffffffffffffffffff168152602001908152602001600020819055508273ffffffffffffffffffffffffffffffffffffffff163373ffffffffffffffffffffffffffffffffffffffff167f6e11fb1b7f119e3f2fa29896ef5fdf8b8a2d0d4df6fe90ba8668e7d8b2ffa25e846040518082815260200191505060405180910390a36001905092915050565b60005481565b6000600360008573ffffffffffffffffffffffffffffffffffffffff1673ffffffffffffffffffffffffffffffffffffffff168152602001908152602001600020548211151515610b7e576040517f08c379a00000000000000000000000000000000000000000000000000000000081526004018080602001828103825260148152602001807f496e73756666696369656e742062616c616e636500000000000000000000000081525060200191505060405180910390fd5b600460008573ffffffffffffffffffffffffffffffffffffffff1673ffffffffffffffffffffffffffffffffffffffff16815260200190815260200160002060003373ffffffffffffffffffffffffffffffffffffffff1673ffffffffffffffffffffffffffffffffffffffff168152602001908152602001600020548211151515610c72576040517f08c379a00000000000000000000000000000000000000000000000000000000081526004018080602001828103825260148152602001807f496e73756666696369656e742062616c616e636500000000000000000000000081525060200191505060405180910390fd5b81600360008673ffffffffffffffffffffffffffffffffffffffff1673ffffffffffffffffffffffffffffffffffffffff1681526020019081526020016000206000828254039250508190555081600360008573ffffffffffffffffffffffffffffffffffffffff1673ffffffffffffffffffffffffffffffffffffffff1681526020019081526020016000206000828254019250508190555081600460008673ffffffffffffffffffffffffffffffffffffffff1673ffffffffffffffffffffffffffffffffffffffff16815260200190815260200160002060003373ffffffffffffffffffffffffffffffffffffffff1673ffffffffffffffffffffffffffffffffffffffff168152602001908152602001600020600082825403925050819055508273ffffffffffffffffffffffffffffffffffffffff168473ffffffffffffffffffffffffffffffffffffffff167fddf252ad1be2c89b69c2b068fc378daa952ba7f163c4a11628f55a4df523b3ef846040518082815260200191505060405180910390a3600190509392505050565b6001600260008360001916600019168152602001908152602001600020600c01600084600019166000191681526020019081526020016000206001016000856000191660001916815260200190815260200160002060070160003373ffffffffffffffffffffffffffffffffffffffff1673ffffffffffffffffffffffffffffffffffffffff1681526020019081526020016000205414156111a3576000600260008360001916600019168152602001908152602001600020600c01600084600019166000191681526020019081526020016000206001016000856000191660001916815260200190815260200160002060070160003373ffffffffffffffffffffffffffffffffffffffff1673ffffffffffffffffffffffffffffffffffffffff16815260200190815260200160002081905550600260008260001916600019168152602001908152602001600020600c01600083600019166000191681526020019081526020016000206001016000846000191660001916815260200190815260200160002060060160008154809291906001900391905055507fcef0b5ad198817eac9187451e3eb92cc1bbee3ee4b8a241bbf7e12b5a8f0674e83600260008460001916600019168152602001908152602001600020600c01600085600019166000191681526020019081526020016000206001016000866000191660001916815260200190815260200160002060020160009054906101000a900473ffffffffffffffffffffffffffffffffffffffff1633600260008660001916600019168152602001908152602001600020600c0160008760001916600019168152602001908152602001600020600101600088600019166000191681526020019081526020016000206001016040518085600019166000191681526020018473ffffffffffffffffffffffffffffffffffffffff1673ffffffffffffffffffffffffffffffffffffffff1681526020018373ffffffffffffffffffffffffffffffffffffffff1673ffffffffffffffffffffffffffffffffffffffff1681526020018060200182810382528381815460018160011615610100020316600290048152602001915080546001816001161561010002031660029004801561118d5780601f106111625761010080835404028352916020019161118d565b820191906000526020600020905b81548152906001019060200180831161117057829003601f168201915b50509550505050505060405180910390a161153d565b6001600260008360001916600019168152602001908152602001600020600c01600084600019166000191681526020019081526020016000206001016000856000191660001916815260200190815260200160002060070160003373ffffffffffffffffffffffffffffffffffffffff1673ffffffffffffffffffffffffffffffffffffffff1681526020019081526020016000205414151561153c576001600260008360001916600019168152602001908152602001600020600c01600084600019166000191681526020019081526020016000206001016000856000191660001916815260200190815260200160002060070160003373ffffffffffffffffffffffffffffffffffffffff1673ffffffffffffffffffffffffffffffffffffffff16815260200190815260200160002081905550600260008260001916600019168152602001908152602001600020600c016000836000191660001916815260200190815260200160002060010160008460001916600019168152602001908152602001600020600601600081548092919060010191905055507ff8382263ab21d702766fae04c1c9b48aecefadac22d2f608c9193df531c1349783600260008460001916600019168152602001908152602001600020600c01600085600019166000191681526020019081526020016000206001016000866000191660001916815260200190815260200160002060020160009054906101000a900473ffffffffffffffffffffffffffffffffffffffff1633600260008660001916600019168152602001908152602001600020600c0160008760001916600019168152602001908152602001600020600101600088600019166000191681526020019081526020016000206001016040518085600019166000191681526020018473ffffffffffffffffffffffffffffffffffffffff1673ffffffffffffffffffffffffffffffffffffffff1681526020018373ffffffffffffffffffffffffffffffffffffffff1673ffffffffffffffffffffffffffffffffffffffff1681526020018060200182810382528381815460018160011615610100020316600290048152602001915080546001816001161561010002031660029004801561152a5780601f106114ff5761010080835404028352916020019161152a565b820191906000526020600020905b81548152906001019060200180831161150d57829003601f168201915b50509550505050505060405180910390a15b5b505050565b601281565b6002602052806000526040600020600091509050806000018054600181600116156101000203166002900480601f0160208091040260200160405190810160405280929190818152602001828054600181600116156101000203166002900480156115f35780601f106115c8576101008083540402835291602001916115f3565b820191906000526020600020905b8154815290600101906020018083116115d657829003601f168201915b505050505090806001015490806002018054600181600116156101000203166002900480601f0160208091040260200160405190810160405280929190818152602001828054600181600116156101000203166002900480156116975780601f1061166c57610100808354040283529160200191611697565b820191906000526020600020905b81548152906001019060200180831161167a57829003601f168201915b505050505090806003018054600181600116156101000203166002900480601f0160208091040260200160405190810160405280929190818152602001828054600181600116156101000203166002900480156117355780601f1061170a57610100808354040283529160200191611735565b820191906000526020600020905b81548152906001019060200180831161171857829003601f168201915b5050505050908060040160009054906101000a900473ffffffffffffffffffffffffffffffffffffffff16908060050154908060060154908060070154908060090154905089565b60036020528060005260406000206000915090505481565b60015481565b6040805190810160405280600381526020017f464143000000000000000000000000000000000000000000000000000000000081525081565b6000806117df614379565b8585853343604051602001808660001916600019168152602001856000191660001916815260200184805190602001908083835b6020831015156118385780518252602082019150602081019050602083039250611813565b6001836020036101000a0380198251168184511680821785525050505050509050018373ffffffffffffffffffffffffffffffffffffffff1673ffffffffffffffffffffffffffffffffffffffff166c01000000000000000000000000028152601401828152602001955050505050506040516020818303038152906040526040518082805190602001908083835b6020831015156118ec57805182526020820191506020810190506020830392506118c7565b6001836020036101000a0380198251168184511680821785525050505050509050019150506040518091039020915060c060405190810160405280836000191681526020018581526020013373ffffffffffffffffffffffffffffffffffffffff168152602001438152602001600081526020016000815250905080600260008860001916600019168152602001908152602001600020600c0160008760001916600019168152602001908152602001600020600101600084600019166000191681526020019081526020016000206000820151816000019060001916905560208201518160010190805190602001906119e79291906143c9565b5060408201518160020160006101000a81548173ffffffffffffffffffffffffffffffffffffffff021916908373ffffffffffffffffffffffffffffffffffffffff160217905550606082015181600301556080820151816004015560a082015181600601559050506001925050509392505050565b60007f8d7f8e60639828470f9f3cd61bcc8f4022d1830cfec86d638e81fb1743590e398260026000856000191660001916815260200190815260200160002060040160009054906101000a900473ffffffffffffffffffffffffffffffffffffffff16336002600087600019166000191681526020019081526020016000206000016040518085600019166000191681526020018473ffffffffffffffffffffffffffffffffffffffff1673ffffffffffffffffffffffffffffffffffffffff1681526020018373ffffffffffffffffffffffffffffffffffffffff1673ffffffffffffffffffffffffffffffffffffffff16815260200180602001828103825283818154600181600116156101000203166002900481526020019150805460018160011615610100020316600290048015611bda5780601f10611baf57610100808354040283529160200191611bda565b820191906000526020600020905b815481529060010190602001808311611bbd57829003601f168201915b50509550505050505060405180910390a16001600260008460001916600019168152602001908152602001600020600b0160003373ffffffffffffffffffffffffffffffffffffffff1673ffffffffffffffffffffffffffffffffffffffff168152602001908152602001600020541415611d00577f62040b3bd9e4a1901ef23113c64eab4d6322b43739c93411a8a3b6c262a62e62338360405180806020018473ffffffffffffffffffffffffffffffffffffffff1673ffffffffffffffffffffffffffffffffffffffff1681526020018360001916600019168152602001828103825260148152602001807f41727469636c6520616c72656164792072656164000000000000000000000000815250602001935050505060405180910390a1611e20565b3373ffffffffffffffffffffffffffffffffffffffff1660026000846000191660001916815260200190815260200160002060040160009054906101000a900473ffffffffffffffffffffffffffffffffffffffff1673ffffffffffffffffffffffffffffffffffffffff161415611e1f577f62040b3bd9e4a1901ef23113c64eab4d6322b43739c93411a8a3b6c262a62e62338360405180806020018473ffffffffffffffffffffffffffffffffffffffff1673ffffffffffffffffffffffffffffffffffffffff16815260200183600019166000191681526020018281038252601e8152602001807f417574686f722063616e6e6f742072656164206f776e2061727469636c650000815250602001935050505060405180910390a15b5b6001600260008460001916600019168152602001908152602001600020600b0160003373ffffffffffffffffffffffffffffffffffffffff1673ffffffffffffffffffffffffffffffffffffffff1681526020019081526020016000205414151515611ef4576040517f08c379a00000000000000000000000000000000000000000000000000000000081526004018080602001828103825260148152602001807f41727469636c6520616c7265616479207265616400000000000000000000000081525060200191505060405180910390fd5b3373ffffffffffffffffffffffffffffffffffffffff1660026000846000191660001916815260200190815260200160002060040160009054906101000a900473ffffffffffffffffffffffffffffffffffffffff1673ffffffffffffffffffffffffffffffffffffffff1614151515611fd6576040517f08c379a000000000000000000000000000000000000000000000000000000000815260040180806020018281038252601e8152602001807f417574686f722063616e6e6f742072656164206f776e2061727469636c65000081525060200191505060405180910390fd5b600260008360001916600019168152602001908152602001600020600601600081548092919060010191905055506001600260008460001916600019168152602001908152602001600020600b0160003373ffffffffffffffffffffffffffffffffffffffff1673ffffffffffffffffffffffffffffffffffffffff168152602001908152602001600020819055503073ffffffffffffffffffffffffffffffffffffffff1663a9059cbb33600154600202600054600360003073ffffffffffffffffffffffffffffffffffffffff1673ffffffffffffffffffffffffffffffffffffffff168152602001908152602001600020548115156120d457fe5b04026040518363ffffffff167c0100000000000000000000000000000000000000000000000000000000028152600401808373ffffffffffffffffffffffffffffffffffffffff1673ffffffffffffffffffffffffffffffffffffffff16815260200182815260200192505050602060405180830381600087803b15801561215b57600080fd5b505af115801561216f573d6000803e3d6000fd5b505050506040513d602081101561218557600080fd5b8101908080519060200190929190505050151561220a576040517f08c379a00000000000000000000000000000000000000000000000000000000081526004018080602001828103825260128152602001807f5472616e73616374696f6e206661696c6564000000000000000000000000000081525060200191505060405180910390fd5b3073ffffffffffffffffffffffffffffffffffffffff1663a9059cbb60026000856000191660001916815260200190815260200160002060040160009054906101000a900473ffffffffffffffffffffffffffffffffffffffff16600154600a02600054600360003073ffffffffffffffffffffffffffffffffffffffff1673ffffffffffffffffffffffffffffffffffffffff168152602001908152602001600020548115156122b757fe5b04026040518363ffffffff167c0100000000000000000000000000000000000000000000000000000000028152600401808373ffffffffffffffffffffffffffffffffffffffff1673ffffffffffffffffffffffffffffffffffffffff16815260200182815260200192505050602060405180830381600087803b15801561233e57600080fd5b505af1158015612352573d6000803e3d6000fd5b505050506040513d602081101561236857600080fd5b810190808051906020019092919050505015156123ed576040517f08c379a00000000000000000000000000000000000000000000000000000000081526004018080602001828103825260128152602001807f5472616e73616374696f6e206661696c6564000000000000000000000000000081525060200191505060405180910390fd5b60019050919050565b6001600260008360001916600019168152602001908152602001600020600a0160003373ffffffffffffffffffffffffffffffffffffffff1673ffffffffffffffffffffffffffffffffffffffff16815260200190815260200160002054141561267b576000600260008360001916600019168152602001908152602001600020600a0160003373ffffffffffffffffffffffffffffffffffffffff1673ffffffffffffffffffffffffffffffffffffffff1681526020019081526020016000208190555060026000826000191660001916815260200190815260200160002060090160008154809291906001900391905055507fcef0b5ad198817eac9187451e3eb92cc1bbee3ee4b8a241bbf7e12b5a8f0674e8160026000846000191660001916815260200190815260200160002060040160009054906101000a900473ffffffffffffffffffffffffffffffffffffffff16336002600086600019166000191681526020019081526020016000206000016040518085600019166000191681526020018473ffffffffffffffffffffffffffffffffffffffff1673ffffffffffffffffffffffffffffffffffffffff1681526020018373ffffffffffffffffffffffffffffffffffffffff1673ffffffffffffffffffffffffffffffffffffffff168152602001806020018281038252838181546001816001161561010002031660029004815260200191508054600181600116156101000203166002900480156126655780601f1061263a57610100808354040283529160200191612665565b820191906000526020600020905b81548152906001019060200180831161264857829003601f168201915b50509550505050505060405180910390a16128fd565b6001600260008360001916600019168152602001908152602001600020600a0160003373ffffffffffffffffffffffffffffffffffffffff1673ffffffffffffffffffffffffffffffffffffffff168152602001908152602001600020541415156128fc576001600260008360001916600019168152602001908152602001600020600a0160003373ffffffffffffffffffffffffffffffffffffffff1673ffffffffffffffffffffffffffffffffffffffff16815260200190815260200160002081905550600260008260001916600019168152602001908152602001600020600901600081548092919060010191905055507ff8382263ab21d702766fae04c1c9b48aecefadac22d2f608c9193df531c134978160026000846000191660001916815260200190815260200160002060040160009054906101000a900473ffffffffffffffffffffffffffffffffffffffff16336002600086600019166000191681526020019081526020016000206000016040518085600019166000191681526020018473ffffffffffffffffffffffffffffffffffffffff1673ffffffffffffffffffffffffffffffffffffffff1681526020018373ffffffffffffffffffffffffffffffffffffffff1673ffffffffffffffffffffffffffffffffffffffff168152602001806020018281038252838181546001816001161561010002031660029004815260200191508054600181600116156101000203166002900480156128ea5780601f106128bf576101008083540402835291602001916128ea565b820191906000526020600020905b8154815290600101906020018083116128cd57829003601f168201915b50509550505050505060405180910390a15b5b50565b600081600360003373ffffffffffffffffffffffffffffffffffffffff1673ffffffffffffffffffffffffffffffffffffffff16815260200190815260200160002054101515156129b9576040517f08c379a00000000000000000000000000000000000000000000000000000000081526004018080602001828103825260148152602001807f496e73756666696369656e742062616c616e636500000000000000000000000081525060200191505060405180910390fd5b81600360003373ffffffffffffffffffffffffffffffffffffffff1673ffffffffffffffffffffffffffffffffffffffff1681526020019081526020016000206000828254039250508190555081600360008573ffffffffffffffffffffffffffffffffffffffff1673ffffffffffffffffffffffffffffffffffffffff168152602001908152602001600020600082825401925050819055508273ffffffffffffffffffffffffffffffffffffffff163373ffffffffffffffffffffffffffffffffffffffff167fddf252ad1be2c89b69c2b068fc378daa952ba7f163c4a11628f55a4df523b3ef846040518082815260200191505060405180910390a36001905092915050565b6001600260008360001916600019168152602001908152602001600020600c01600084600019166000191681526020019081526020016000206001016000856000191660001916815260200190815260200160002060050160003373ffffffffffffffffffffffffffffffffffffffff1673ffffffffffffffffffffffffffffffffffffffff168152602001908152602001600020541415612e5f576000600260008360001916600019168152602001908152602001600020600c01600084600019166000191681526020019081526020016000206001016000856000191660001916815260200190815260200160002060050160003373ffffffffffffffffffffffffffffffffffffffff1673ffffffffffffffffffffffffffffffffffffffff16815260200190815260200160002081905550600260008260001916600019168152602001908152602001600020600c01600083600019166000191681526020019081526020016000206001016000846000191660001916815260200190815260200160002060040160008154809291906001900391905055507ff8382263ab21d702766fae04c1c9b48aecefadac22d2f608c9193df531c1349783600260008460001916600019168152602001908152602001600020600c01600085600019166000191681526020019081526020016000206001016000866000191660001916815260200190815260200160002060020160009054906101000a900473ffffffffffffffffffffffffffffffffffffffff1633600260008660001916600019168152602001908152602001600020600c0160008760001916600019168152602001908152602001600020600101600088600019166000191681526020019081526020016000206001016040518085600019166000191681526020018473ffffffffffffffffffffffffffffffffffffffff1673ffffffffffffffffffffffffffffffffffffffff1681526020018373ffffffffffffffffffffffffffffffffffffffff1673ffffffffffffffffffffffffffffffffffffffff16815260200180602001828103825283818154600181600116156101000203166002900481526020019150805460018160011615610100020316600290048015612e495780601f10612e1e57610100808354040283529160200191612e49565b820191906000526020600020905b815481529060010190602001808311612e2c57829003601f168201915b50509550505050505060405180910390a161364f565b6001600260008360001916600019168152602001908152602001600020600c01600084600019166000191681526020019081526020016000206001016000856000191660001916815260200190815260200160002060050160003373ffffffffffffffffffffffffffffffffffffffff1673ffffffffffffffffffffffffffffffffffffffff1681526020019081526020016000205414151561364e576001600260008360001916600019168152602001908152602001600020600c01600084600019166000191681526020019081526020016000206001016000856000191660001916815260200190815260200160002060080160003373ffffffffffffffffffffffffffffffffffffffff1673ffffffffffffffffffffffffffffffffffffffff16815260200190815260200160002054141515613352573073ffffffffffffffffffffffffffffffffffffffff1663a9059cbb336001600054600360003073ffffffffffffffffffffffffffffffffffffffff1673ffffffffffffffffffffffffffffffffffffffff1681526020019081526020016000205481151561300457fe5b04026040518363ffffffff167c0100000000000000000000000000000000000000000000000000000000028152600401808373ffffffffffffffffffffffffffffffffffffffff1673ffffffffffffffffffffffffffffffffffffffff16815260200182815260200192505050602060405180830381600087803b15801561308b57600080fd5b505af115801561309f573d6000803e3d6000fd5b505050506040513d60208110156130b557600080fd5b8101908080519060200190929190505050151561313a576040517f08c379a00000000000000000000000000000000000000000000000000000000081526004018080602001828103825260128152602001807f5472616e73616374696f6e206661696c6564000000000000000000000000000081525060200191505060405180910390fd5b3073ffffffffffffffffffffffffffffffffffffffff1663a9059cbb600260008460001916600019168152602001908152602001600020600c01600085600019166000191681526020019081526020016000206001016000866000191660001916815260200190815260200160002060020160009054906101000a900473ffffffffffffffffffffffffffffffffffffffff166005600054600360003073ffffffffffffffffffffffffffffffffffffffff1673ffffffffffffffffffffffffffffffffffffffff1681526020019081526020016000205481151561321b57fe5b04026040518363ffffffff167c0100000000000000000000000000000000000000000000000000000000028152600401808373ffffffffffffffffffffffffffffffffffffffff1673ffffffffffffffffffffffffffffffffffffffff16815260200182815260200192505050602060405180830381600087803b1580156132a257600080fd5b505af11580156132b6573d6000803e3d6000fd5b505050506040513d60208110156132cc57600080fd5b81019080805190602001909291905050501515613351576040517f08c379a00000000000000000000000000000000000000000000000000000000081526004018080602001828103825260128152602001807f5472616e73616374696f6e206661696c6564000000000000000000000000000081525060200191505060405180910390fd5b5b6001600260008360001916600019168152602001908152602001600020600c01600084600019166000191681526020019081526020016000206001016000856000191660001916815260200190815260200160002060050160003373ffffffffffffffffffffffffffffffffffffffff1673ffffffffffffffffffffffffffffffffffffffff16815260200190815260200160002081905550600260008260001916600019168152602001908152602001600020600c016000836000191660001916815260200190815260200160002060010160008460001916600019168152602001908152602001600020600401600081548092919060010191905055507fcef0b5ad198817eac9187451e3eb92cc1bbee3ee4b8a241bbf7e12b5a8f0674e83600260008460001916600019168152602001908152602001600020600c01600085600019166000191681526020019081526020016000206001016000866000191660001916815260200190815260200160002060020160009054906101000a900473ffffffffffffffffffffffffffffffffffffffff1633600260008660001916600019168152602001908152602001600020600c0160008760001916600019168152602001908152602001600020600101600088600019166000191681526020019081526020016000206001016040518085600019166000191681526020018473ffffffffffffffffffffffffffffffffffffffff1673ffffffffffffffffffffffffffffffffffffffff1681526020018373ffffffffffffffffffffffffffffffffffffffff1673ffffffffffffffffffffffffffffffffffffffff1681526020018060200182810382528381815460018160011615610100020316600290048152602001915080546001816001161561010002031660029004801561363c5780601f106136115761010080835404028352916020019161363c565b820191906000526020600020905b81548152906001019060200180831161361f57829003601f168201915b50509550505050505060405180910390a15b5b505050565b6004602052816000526040600020602052806000526040600020600091509150505481565b600160026000836000191660001916815260200190815260200160002060080160003373ffffffffffffffffffffffffffffffffffffffff1673ffffffffffffffffffffffffffffffffffffffff1681526020019081526020016000205414156138fc57600060026000836000191660001916815260200190815260200160002060080160003373ffffffffffffffffffffffffffffffffffffffff1673ffffffffffffffffffffffffffffffffffffffff168152602001908152602001600020505060026000826000191660001916815260200190815260200160002060070160008154809291906001900391905055507ff8382263ab21d702766fae04c1c9b48aecefadac22d2f608c9193df531c134978160026000846000191660001916815260200190815260200160002060040160009054906101000a900473ffffffffffffffffffffffffffffffffffffffff16336002600086600019166000191681526020019081526020016000206000016040518085600019166000191681526020018473ffffffffffffffffffffffffffffffffffffffff1673ffffffffffffffffffffffffffffffffffffffff1681526020018373ffffffffffffffffffffffffffffffffffffffff1673ffffffffffffffffffffffffffffffffffffffff168152602001806020018281038252838181546001816001161561010002031660029004815260200191508054600181600116156101000203166002900480156138e65780601f106138bb576101008083540402835291602001916138e6565b820191906000526020600020905b8154815290600101906020018083116138c957829003601f168201915b50509550505050505060405180910390a1613f62565b600160026000836000191660001916815260200190815260200160002060080160003373ffffffffffffffffffffffffffffffffffffffff1673ffffffffffffffffffffffffffffffffffffffff16815260200190815260200160002054141515613f61576001600260008360001916600019168152602001908152602001600020600b0160003373ffffffffffffffffffffffffffffffffffffffff1673ffffffffffffffffffffffffffffffffffffffff16815260200190815260200160002054141515613d47573073ffffffffffffffffffffffffffffffffffffffff1663a9059cbb336004600054600360003073ffffffffffffffffffffffffffffffffffffffff1673ffffffffffffffffffffffffffffffffffffffff16815260200190815260200160002054811515613a3157fe5b04026040518363ffffffff167c0100000000000000000000000000000000000000000000000000000000028152600401808373ffffffffffffffffffffffffffffffffffffffff1673ffffffffffffffffffffffffffffffffffffffff16815260200182815260200192505050602060405180830381600087803b158015613ab857600080fd5b505af1158015613acc573d6000803e3d6000fd5b505050506040513d6020811015613ae257600080fd5b81019080805190602001909291905050501515613b67576040517f08c379a00000000000000000000000000000000000000000000000000000000081526004018080602001828103825260128152602001807f5472616e73616374696f6e206661696c6564000000000000000000000000000081525060200191505060405180910390fd5b3073ffffffffffffffffffffffffffffffffffffffff1663a9059cbb60026000846000191660001916815260200190815260200160002060040160009054906101000a900473ffffffffffffffffffffffffffffffffffffffff16600f600054600360003073ffffffffffffffffffffffffffffffffffffffff1673ffffffffffffffffffffffffffffffffffffffff16815260200190815260200160002054811515613c1057fe5b04026040518363ffffffff167c0100000000000000000000000000000000000000000000000000000000028152600401808373ffffffffffffffffffffffffffffffffffffffff1673ffffffffffffffffffffffffffffffffffffffff16815260200182815260200192505050602060405180830381600087803b158015613c9757600080fd5b505af1158015613cab573d6000803e3d6000fd5b505050506040513d6020811015613cc157600080fd5b81019080805190602001909291905050501515613d46576040517f08c379a00000000000000000000000000000000000000000000000000000000081526004018080602001828103825260128152602001807f5472616e73616374696f6e206661696c6564000000000000000000000000000081525060200191505060405180910390fd5b5b600160026000836000191660001916815260200190815260200160002060080160003373ffffffffffffffffffffffffffffffffffffffff1673ffffffffffffffffffffffffffffffffffffffff1681526020019081526020016000205050600260008260001916600019168152602001908152602001600020600701600081548092919060010191905055507fcef0b5ad198817eac9187451e3eb92cc1bbee3ee4b8a241bbf7e12b5a8f0674e8160026000846000191660001916815260200190815260200160002060040160009054906101000a900473ffffffffffffffffffffffffffffffffffffffff16336002600086600019166000191681526020019081526020016000206000016040518085600019166000191681526020018473ffffffffffffffffffffffffffffffffffffffff1673ffffffffffffffffffffffffffffffffffffffff1681526020018373ffffffffffffffffffffffffffffffffffffffff1673ffffffffffffffffffffffffffffffffffffffff16815260200180602001828103825283818154600181600116156101000203166002900481526020019150805460018160011615610100020316600290048015613f4f5780601f10613f2457610100808354040283529160200191613f4f565b820191906000526020600020905b815481529060010190602001808311613f3257829003601f168201915b50509550505050505060405180910390a15b5b50565b600080613f70614449565b85858533436040516020018086805190602001908083835b602083101515613fad5780518252602082019150602081019050602083039250613f88565b6001836020036101000a03801982511681845116808217855250505050505090500185805190602001908083835b6020831015156140005780518252602082019150602081019050602083039250613fdb565b6001836020036101000a03801982511681845116808217855250505050505090500184805190602001908083835b602083101515614053578051825260208201915060208101905060208303925061402e565b6001836020036101000a0380198251168184511680821785525050505050509050018373ffffffffffffffffffffffffffffffffffffffff1673ffffffffffffffffffffffffffffffffffffffff166c01000000000000000000000000028152601401828152602001955050505050506040516020818303038152906040526040518082805190602001908083835b60208310151561410757805182526020820191506020810190506020830392506140e2565b6001836020036101000a038019825116818451168082178552505050505050905001915050604051809103902091507f3174b095a59e9d2213e3e85b2c40e1b657af9fd91a0285b9e46faba37348440a8233886040518084600019166000191681526020018373ffffffffffffffffffffffffffffffffffffffff1673ffffffffffffffffffffffffffffffffffffffff16815260200180602001828103825283818151815260200191508051906020019080838360005b838110156141da5780820151818401526020810190506141bf565b50505050905090810190601f1680156142075780820380516001836020036101000a031916815260200191505b5094505050505060405180910390a161012060405190810160405280878152602001836000191681526020018681526020018581526020013373ffffffffffffffffffffffffffffffffffffffff1681526020014381526020016000815260200160008152602001600081525090508060026000846000191660001916815260200190815260200160002060008201518160000190805190602001906142ae9291906143c9565b506020820151816001019060001916905560408201518160020190805190602001906142db9291906143c9565b5060608201518160030190805190602001906142f89291906143c9565b5060808201518160040160006101000a81548173ffffffffffffffffffffffffffffffffffffffff021916908373ffffffffffffffffffffffffffffffffffffffff16021790555060a0820151816005015560c0820151816006015560e0820151816007015561010082015181600901559050506001925050509392505050565b60c0604051908101604052806000801916815260200160608152602001600073ffffffffffffffffffffffffffffffffffffffff1681526020016000815260200160008152602001600081525090565b828054600181600116156101000203166002900490600052602060002090601f016020900481019282601f1061440a57805160ff1916838001178555614438565b82800160010185558215614438579182015b8281111561443757825182559160200191906001019061441c565b5b50905061444591906144af565b5090565b6101206040519081016040528060608152602001600080191681526020016060815260200160608152602001600073ffffffffffffffffffffffffffffffffffffffff168152602001600081526020016000815260200160008152602001600081525090565b6144d191905b808211156144cd5760008160009055506001016144b5565b5090565b905600a165627a7a72305820c549de3ace6f08e350a584aad300fe5f19f4a7a69f63953fd6bf534afdfc02f40029",
  "source": "pragma solidity ^0.4.24; // Set compiler version\n\n// Token contract\ncontract Facito {\n    string public constant name = \"Facito\"; // Name\n    string public constant symbol = \"FAC\"; // Symbol\n    uint8 public constant decimals = 18; // Set precision points\n    uint256 public totalSupply; // Store total supply\n    uint256 public baseReward;\n\n    mapping(bytes32 => Article) public articles; // Store articles\n\n    event Transfer (\n        address indexed _from,\n        address indexed _to,\n        uint256 _value\n    );\n\n    event Approve (\n        address indexed _owner,\n        address indexed _spender,\n        uint256 _value\n    );\n\n    event NewArticle (\n        bytes32 _ID,\n        address _author,\n        string _title\n    );\n\n    event ReadArticle (\n        bytes32 _ID,\n        address _author,\n        address _reader,\n        string _title\n    );\n\n    event UpvotedPost (\n        bytes32 _ID, \n        address _author,\n        address _upvoter,\n        string _content\n    );\n\n    event DownvotedPost (\n        bytes32 _ID, \n        address _author,\n        address _downvoter,\n        string _content\n    );\n\n    event ArticleError (\n        string _message,\n        address sender,\n        bytes32 _ID\n    );\n\n    struct Article {\n        string Title;\n        bytes32 ID;\n        string Content;\n        string HeaderSource;\n        address Author;\n        uint256 BlockNumber;\n        uint256 Views;\n\n        uint256 Upvotes;\n        mapping(address => uint) Upvoters; // 0: Not upvoted, 1: upvoted\n\n        uint256 Downvotes;\n        mapping(address => uint) Downvoters; // 0: Not downvoted, 1: downvoted\n\n        mapping(address => uint) UnspentOutputs; // 0: unspent, 1: spent\n\n        mapping(bytes32 => Thread) Threads;\n    }\n\n    struct Comment {\n        bytes32 ID;\n        string Content;\n        address Author;\n        uint256 BlockNumber;\n\n        uint256 Upvotes;\n        mapping(address => uint) Upvoters; // 0: Not upvoted, 1: upvoted\n\n        uint256 Downvotes;\n        mapping(address => uint) Downvoters; // 0: Not downvoted, 1: downvoted\n\n        mapping(address => uint) UnspentOutputs; // 0: unspent, 1: spent\n    }\n\n    struct Thread {\n        bytes32 ID;\n        mapping(bytes32 => Comment) Comments;\n        address Author;\n        uint256 BlockNumber;\n    }\n\n    mapping(address => uint256) public balanceOf;\n    mapping(address => mapping(address => uint256)) public allowance;\n\n    constructor(uint256 _initialSupply) public {\n        _initialSupply = _initialSupply*(10^decimals); // Append decimal points\n\n        balanceOf[this] = _initialSupply; // Set contract balance\n        totalSupply = _initialSupply; // Set total supply\n        baseReward = 1*(10^decimals); // Append decimals to base reward\n    }\n\n    function transfer(address _to, uint256 _value) public returns (bool success) {\n        require(balanceOf[msg.sender] >= _value, \"Insufficient balance\"); // Check for invalid balance\n\n        balanceOf[msg.sender] -= _value; // Set sender balance\n        balanceOf[_to] += _value; // Set recipient balance\n\n        emit Transfer(msg.sender, _to, _value); // Emit transfer event\n\n        return true; // Return success\n    }\n\n    function approve(address _spender, uint256 _value) public returns (bool success) {\n        allowance[msg.sender][_spender] = _value; // Set allowance\n\n        emit Approve(msg.sender, _spender, _value); // Emit approve event\n\n        return true; // Return success\n    }\n\n    function transferFrom(address _from, address _to, uint256 _value) public returns (bool success) {\n        require(_value <= balanceOf[_from], \"Insufficient balance\"); // Check allowance is valid\n        require(_value <= allowance[_from][msg.sender], \"Insufficient balance\"); // Check allowance is valid\n\n        balanceOf[_from] -= _value; // Remove from sender\n        balanceOf[_to] += _value; // Add to destination\n\n        allowance[_from][msg.sender] -= _value; // Remove allowance\n\n        emit Transfer(_from, _to, _value); // Emit transfer event\n\n        return true; // Return success\n    }\n\n    // END ERC20 IMPLEMENTATION\n\n    /* BEGIN BASIC ARTICLE METHODS */\n\n    function newArticle(string _title, string _content, string _headerSource) public returns (bool success) {\n        bytes32 _id = keccak256(abi.encodePacked(_title, _content, _headerSource, msg.sender, block.number)); // Hash ID\n\n        emit NewArticle(_id, msg.sender, _title); // Emit new article\n\n        Article memory article = Article(_title, _id, _content, _headerSource, msg.sender, block.number, 0, 0, 0); // Initialize article\n\n        articles[_id] = article; // Push new article\n\n        return true; // Return success\n    }\n\n    function readArticle(bytes32 _id) public returns (bool success) {\n        emit ReadArticle(_id, articles[_id].Author, msg.sender, articles[_id].Title); // Emit read article\n\n        if (articles[_id].UnspentOutputs[msg.sender] == 1) {\n            emit ArticleError(\"Article already read\", msg.sender, _id); // Emit error\n        } else if (articles[_id].Author == msg.sender) {\n            emit ArticleError(\"Author cannot read own article\", msg.sender, _id); // Emit error\n        }\n\n        require(articles[_id].UnspentOutputs[msg.sender] != 1, \"Article already read\"); // Check article hasn't already been read\n        require(articles[_id].Author != msg.sender, \"Author cannot read own article\"); // Check author isn't reading own article\n\n        articles[_id].Views++; // Increment view count\n\n        articles[_id].UnspentOutputs[msg.sender] = 1; // Set spent\n\n        require(this.transfer(msg.sender, (balanceOf[this]/totalSupply)*(2*baseReward)), \"Transaction failed\"); // Transfer coins to reader\n        require(this.transfer(articles[_id].Author, (balanceOf[this]/totalSupply)*(10*baseReward)), \"Transaction failed\"); // Transfer coins\n\n        return true; // Return success\n    }\n\n    /* END BASIC ARTICLE METHODS */\n\n    /* BEGIN BASIC COMMENT METHODS */\n\n    function newComment(bytes32 _postID, bytes32 _threadID, string _content) public returns (bool success) {\n        bytes32 _id = keccak256(abi.encodePacked(_postID, _threadID, _content, msg.sender, block.number)); // Hash ID\n\n        Comment memory comment = Comment(_id, _content, msg.sender, block.number, 0, 0); // Initialize comment\n\n        articles[_postID].Threads[_threadID].Comments[_id] = comment; // Add comment\n\n        return true; // Return success\n    }\n\n    /* END BASIC COMMENT METHODS */\n\n    /* POST UPVOTE/DOWNVOTE METHODs */\n\n    function upvotePost(bytes32 _id) public {\n        if (articles[_id].Upvoters[msg.sender] == 1) { // Check already upvoted\n            articles[_id].Upvoters[msg.sender] == 0; // Remove upvote\n\n            articles[_id].Upvotes--; // Decrement\n\n            emit DownvotedPost(_id, articles[_id].Author, msg.sender, articles[_id].Title); // Emit event\n        } else if (articles[_id].Upvoters[msg.sender] != 1) { // Check not already upvoted\n            if (articles[_id].UnspentOutputs[msg.sender] != 1) { // Check not already spent\n                require(this.transfer(msg.sender, (balanceOf[this]/totalSupply)*4), \"Transaction failed\"); // Transfer coins to reader\n                require(this.transfer(articles[_id].Author, (balanceOf[this]/totalSupply)*15), \"Transaction failed\"); // Transfer coins to author\n            }\n\n            articles[_id].Upvoters[msg.sender] == 1; // Add upvote\n\n            articles[_id].Upvotes++; // Increment\n\n            emit UpvotedPost(_id, articles[_id].Author, msg.sender, articles[_id].Title); // Emit event\n        }\n    }\n\n    function downvotePost(bytes32 _id) public {\n        if (articles[_id].Downvoters[msg.sender] == 1) { // Check already downvoted\n            articles[_id].Downvoters[msg.sender] = 0; // Remove downvote\n\n            articles[_id].Downvotes--; // Decrement\n\n            emit UpvotedPost(_id, articles[_id].Author, msg.sender, articles[_id].Title); // Emit event\n        } else if (articles[_id].Downvoters[msg.sender] != 1) { // Check not already downvoted\n            articles[_id].Downvoters[msg.sender] = 1; // Add downvote\n\n            articles[_id].Downvotes++; // Increment\n\n            emit DownvotedPost(_id, articles[_id].Author, msg.sender, articles[_id].Title); // Emit event\n        }\n    }\n\n    /* END POST UPVOTE/DOWNVOTE METHODS */\n\n    /* COMMENT UPVOTE/DOWNVOTE METHODS */\n\n    function upvoteComment(bytes32 _commentID, bytes32 _threadID, bytes32 _articleID) public {\n        if (articles[_articleID].Threads[_threadID].Comments[_commentID].Upvoters[msg.sender] == 1) { // Check already upvoted\n            articles[_articleID].Threads[_threadID].Comments[_commentID].Upvoters[msg.sender] = 0; // Remove upvote\n\n            articles[_articleID].Threads[_threadID].Comments[_commentID].Upvotes--; // Decrement\n\n            emit DownvotedPost(_commentID, articles[_articleID].Threads[_threadID].Comments[_commentID].Author, msg.sender, articles[_articleID].Threads[_threadID].Comments[_commentID].Content); // Emit event\n        } else if (articles[_articleID].Threads[_threadID].Comments[_commentID].Upvoters[msg.sender] != 1) { // Check not already upvoted\n            if (articles[_articleID].Threads[_threadID].Comments[_commentID].UnspentOutputs[msg.sender] != 1) { // Check not already spent\n                require(this.transfer(msg.sender, (balanceOf[this]/totalSupply)*1), \"Transaction failed\"); // Transfer coins to reader\n                require(this.transfer(articles[_articleID].Threads[_threadID].Comments[_commentID].Author, (balanceOf[this]/totalSupply)*5), \"Transaction failed\"); // Transfer coins to author\n            }\n\n            articles[_articleID].Threads[_threadID].Comments[_commentID].Upvoters[msg.sender] = 1; // Add upvote\n\n            articles[_articleID].Threads[_threadID].Comments[_commentID].Upvotes++; // Increment\n\n            emit UpvotedPost(_commentID, articles[_articleID].Threads[_threadID].Comments[_commentID].Author, msg.sender, articles[_articleID].Threads[_threadID].Comments[_commentID].Content); // Emit event\n        }\n    }\n\n    function downvoteComment(bytes32 _commentID, bytes32 _threadID, bytes32 _articleID) public {\n        if (articles[_articleID].Threads[_threadID].Comments[_commentID].Downvoters[msg.sender] == 1) { // Check already downvoted\n            articles[_articleID].Threads[_threadID].Comments[_commentID].Downvoters[msg.sender] = 0; // Remove downvote\n\n            articles[_articleID].Threads[_threadID].Comments[_commentID].Downvotes--; // Decrement\n\n            emit UpvotedPost(_commentID, articles[_articleID].Threads[_threadID].Comments[_commentID].Author, msg.sender, articles[_articleID].Threads[_threadID].Comments[_commentID].Content); // Emit event\n        } else if (articles[_articleID].Threads[_threadID].Comments[_commentID].Downvoters[msg.sender] != 1) { // Check not already downvoted\n            articles[_articleID].Threads[_threadID].Comments[_commentID].Downvoters[msg.sender] = 1; // Add downvote\n\n            articles[_articleID].Threads[_threadID].Comments[_commentID].Downvotes++; // Increment\n\n            emit DownvotedPost(_commentID, articles[_articleID].Threads[_threadID].Comments[_commentID].Author, msg.sender, articles[_articleID].Threads[_threadID].Comments[_commentID].Content); // Emit event\n        }\n    }\n\n    /* END COMMENT UPVOTE/DOWNVOTE METHODS */\n}\n\n/*\nTODO:\n    - comment initializer\n    - thread initializer\n*/",
  "sourcePath": "/Users/dowlandaiello/Desktop/GitHub/facito/crypto/contracts/Facito.sol",
  "compiler": {
    "name": "solc",
    "version": "0.4.24+commit.e67f0147.Emscripten.clang"
  },
  "schemaVersion": "2.0.1",
  "updatedAt": "2018-10-02T23:15:39.381Z"
}