{
  "contractName": "Facito",
  "abi": [
    {
      "constant": true,
      "inputs": [],
      "name": "name",
      "outputs": [
        {
          "name": "",
          "type": "string"
        }
      ],
      "payable": false,
      "stateMutability": "view",
      "type": "function"
    },
    {
      "constant": true,
      "inputs": [],
      "name": "totalSupply",
      "outputs": [
        {
          "name": "",
          "type": "uint256"
        }
      ],
      "payable": false,
      "stateMutability": "view",
      "type": "function"
    },
    {
      "constant": true,
      "inputs": [],
      "name": "decimals",
      "outputs": [
        {
          "name": "",
          "type": "uint8"
        }
      ],
      "payable": false,
      "stateMutability": "view",
      "type": "function"
    },
    {
      "constant": true,
      "inputs": [
        {
          "name": "",
          "type": "bytes32"
        }
      ],
      "name": "articles",
      "outputs": [
        {
          "name": "Title",
          "type": "string"
        },
        {
          "name": "ID",
          "type": "bytes32"
        },
        {
          "name": "Content",
          "type": "string"
        },
        {
          "name": "HeaderSource",
          "type": "string"
        },
        {
          "name": "Author",
          "type": "address"
        },
        {
          "name": "BlockNumber",
          "type": "uint256"
        },
        {
          "name": "Views",
          "type": "uint256"
        },
        {
          "name": "Upvotes",
          "type": "uint256"
        },
        {
          "name": "Downvotes",
          "type": "uint256"
        }
      ],
      "payable": false,
      "stateMutability": "view",
      "type": "function"
    },
    {
      "constant": true,
      "inputs": [
        {
          "name": "",
          "type": "address"
        }
      ],
      "name": "balanceOf",
      "outputs": [
        {
          "name": "",
          "type": "uint256"
        }
      ],
      "payable": false,
      "stateMutability": "view",
      "type": "function"
    },
    {
      "constant": true,
      "inputs": [],
      "name": "symbol",
      "outputs": [
        {
          "name": "",
          "type": "string"
        }
      ],
      "payable": false,
      "stateMutability": "view",
      "type": "function"
    },
    {
      "constant": true,
      "inputs": [
        {
          "name": "",
          "type": "address"
        },
        {
          "name": "",
          "type": "address"
        }
      ],
      "name": "allowance",
      "outputs": [
        {
          "name": "",
          "type": "uint256"
        }
      ],
      "payable": false,
      "stateMutability": "view",
      "type": "function"
    },
    {
      "inputs": [
        {
          "name": "_initialSupply",
          "type": "uint256"
        }
      ],
      "payable": false,
      "stateMutability": "nonpayable",
      "type": "constructor"
    },
    {
      "anonymous": false,
      "inputs": [
        {
          "indexed": true,
          "name": "_from",
          "type": "address"
        },
        {
          "indexed": true,
          "name": "_to",
          "type": "address"
        },
        {
          "indexed": false,
          "name": "_value",
          "type": "uint256"
        }
      ],
      "name": "Transfer",
      "type": "event"
    },
    {
      "anonymous": false,
      "inputs": [
        {
          "indexed": true,
          "name": "_owner",
          "type": "address"
        },
        {
          "indexed": true,
          "name": "_spender",
          "type": "address"
        },
        {
          "indexed": false,
          "name": "_value",
          "type": "uint256"
        }
      ],
      "name": "Approve",
      "type": "event"
    },
    {
      "anonymous": false,
      "inputs": [
        {
          "indexed": false,
          "name": "_ID",
          "type": "bytes32"
        },
        {
          "indexed": false,
          "name": "_author",
          "type": "address"
        },
        {
          "indexed": false,
          "name": "_title",
          "type": "string"
        }
      ],
      "name": "NewArticle",
      "type": "event"
    },
    {
      "anonymous": false,
      "inputs": [
        {
          "indexed": false,
          "name": "_ID",
          "type": "bytes32"
        },
        {
          "indexed": false,
          "name": "_author",
          "type": "address"
        },
        {
          "indexed": false,
          "name": "_reader",
          "type": "address"
        },
        {
          "indexed": false,
          "name": "_title",
          "type": "string"
        }
      ],
      "name": "ReadArticle",
      "type": "event"
    },
    {
      "anonymous": false,
      "inputs": [
        {
          "indexed": false,
          "name": "_ID",
          "type": "bytes32"
        },
        {
          "indexed": false,
          "name": "_author",
          "type": "address"
        },
        {
          "indexed": false,
          "name": "_upvoter",
          "type": "address"
        },
        {
          "indexed": false,
          "name": "_content",
          "type": "string"
        }
      ],
      "name": "UpvotedPost",
      "type": "event"
    },
    {
      "anonymous": false,
      "inputs": [
        {
          "indexed": false,
          "name": "_ID",
          "type": "bytes32"
        },
        {
          "indexed": false,
          "name": "_author",
          "type": "address"
        },
        {
          "indexed": false,
          "name": "_downvoter",
          "type": "address"
        },
        {
          "indexed": false,
          "name": "_content",
          "type": "string"
        }
      ],
      "name": "DownvotedPost",
      "type": "event"
    },
    {
      "anonymous": false,
      "inputs": [
        {
          "indexed": false,
          "name": "_message",
          "type": "string"
        },
        {
          "indexed": false,
          "name": "sender",
          "type": "address"
        },
        {
          "indexed": false,
          "name": "_ID",
          "type": "bytes32"
        }
      ],
      "name": "ArticleError",
      "type": "event"
    },
    {
      "constant": false,
      "inputs": [
        {
          "name": "_to",
          "type": "address"
        },
        {
          "name": "_value",
          "type": "uint256"
        }
      ],
      "name": "transfer",
      "outputs": [
        {
          "name": "success",
          "type": "bool"
        }
      ],
      "payable": false,
      "stateMutability": "nonpayable",
      "type": "function"
    },
    {
      "constant": false,
      "inputs": [
        {
          "name": "_spender",
          "type": "address"
        },
        {
          "name": "_value",
          "type": "uint256"
        }
      ],
      "name": "approve",
      "outputs": [
        {
          "name": "success",
          "type": "bool"
        }
      ],
      "payable": false,
      "stateMutability": "nonpayable",
      "type": "function"
    },
    {
      "constant": false,
      "inputs": [
        {
          "name": "_from",
          "type": "address"
        },
        {
          "name": "_to",
          "type": "address"
        },
        {
          "name": "_value",
          "type": "uint256"
        }
      ],
      "name": "transferFrom",
      "outputs": [
        {
          "name": "success",
          "type": "bool"
        }
      ],
      "payable": false,
      "stateMutability": "nonpayable",
      "type": "function"
    },
    {
      "constant": false,
      "inputs": [
        {
          "name": "_title",
          "type": "string"
        },
        {
          "name": "_content",
          "type": "string"
        },
        {
          "name": "_headerSource",
          "type": "string"
        }
      ],
      "name": "newArticle",
      "outputs": [
        {
          "name": "success",
          "type": "bool"
        }
      ],
      "payable": false,
      "stateMutability": "nonpayable",
      "type": "function"
    },
    {
      "constant": false,
      "inputs": [
        {
          "name": "_id",
          "type": "bytes32"
        }
      ],
      "name": "readArticle",
      "outputs": [
        {
          "name": "success",
          "type": "bool"
        }
      ],
      "payable": false,
      "stateMutability": "nonpayable",
      "type": "function"
    },
    {
      "constant": false,
      "inputs": [
        {
          "name": "_id",
          "type": "bytes32"
        }
      ],
      "name": "upvotePost",
      "outputs": [],
      "payable": false,
      "stateMutability": "nonpayable",
      "type": "function"
    },
    {
      "constant": false,
      "inputs": [
        {
          "name": "_id",
          "type": "bytes32"
        }
      ],
      "name": "downvotePost",
      "outputs": [],
      "payable": false,
      "stateMutability": "nonpayable",
      "type": "function"
    }
  ],
  "bytecode": "0x608060405234801561001057600080fd5b50604051602080612a588339810180604052810190808051906020019092919050505080600260003073ffffffffffffffffffffffffffffffffffffffff1673ffffffffffffffffffffffffffffffffffffffff1681526020019081526020016000208190555080600081905550506129ca8061008e6000396000f3006080604052600436106100d0576000357c0100000000000000000000000000000000000000000000000000000000900463ffffffff16806306fdde03146100d5578063095ea7b31461016557806318160ddd146101ca57806323b872dd146101f5578063313ce5671461027a57806351da8a4f146102ab57806370a082311461048b57806395d89b41146104e2578063a3b2c41e14610572578063a54ff9ac146105bb578063a9059cbb146105ec578063dd62ed3e14610651578063e2fc2691146106c8578063e503f70d146106f9575b600080fd5b3480156100e157600080fd5b506100ea610806565b6040518080602001828103825283818151815260200191508051906020019080838360005b8381101561012a57808201518184015260208101905061010f565b50505050905090810190601f1680156101575780820380516001836020036101000a031916815260200191505b509250505060405180910390f35b34801561017157600080fd5b506101b0600480360381019080803573ffffffffffffffffffffffffffffffffffffffff1690602001909291908035906020019092919050505061083f565b604051808215151515815260200191505060405180910390f35b3480156101d657600080fd5b506101df610931565b6040518082815260200191505060405180910390f35b34801561020157600080fd5b50610260600480360381019080803573ffffffffffffffffffffffffffffffffffffffff169060200190929190803573ffffffffffffffffffffffffffffffffffffffff16906020019092919080359060200190929190505050610937565b604051808215151515815260200191505060405180910390f35b34801561028657600080fd5b5061028f610c78565b604051808260ff1660ff16815260200191505060405180910390f35b3480156102b757600080fd5b506102da6004803603810190808035600019169060200190929190505050610c7d565b60405180806020018a6000191660001916815260200180602001806020018973ffffffffffffffffffffffffffffffffffffffff1673ffffffffffffffffffffffffffffffffffffffff16815260200188815260200187815260200186815260200185815260200184810384528d818151815260200191508051906020019080838360005b8381101561037a57808201518184015260208101905061035f565b50505050905090810190601f1680156103a75780820380516001836020036101000a031916815260200191505b5084810383528b818151815260200191508051906020019080838360005b838110156103e05780820151818401526020810190506103c5565b50505050905090810190601f16801561040d5780820380516001836020036101000a031916815260200191505b5084810382528a818151815260200191508051906020019080838360005b8381101561044657808201518184015260208101905061042b565b50505050905090810190601f1680156104735780820380516001836020036101000a031916815260200191505b509c5050505050505050505050505060405180910390f35b34801561049757600080fd5b506104cc600480360381019080803573ffffffffffffffffffffffffffffffffffffffff169060200190929190505050610eb3565b6040518082815260200191505060405180910390f35b3480156104ee57600080fd5b506104f7610ecb565b6040518080602001828103825283818151815260200191508051906020019080838360005b8381101561053757808201518184015260208101905061051c565b50505050905090810190601f1680156105645780820380516001836020036101000a031916815260200191505b509250505060405180910390f35b34801561057e57600080fd5b506105a16004803603810190808035600019169060200190929190505050610f04565b604051808215151515815260200191505060405180910390f35b3480156105c757600080fd5b506105ea6004803603810190808035600019169060200190929190505050611892565b005b3480156105f857600080fd5b50610637600480360381019080803573ffffffffffffffffffffffffffffffffffffffff16906020019092919080359060200190929190505050611d95565b604051808215151515815260200191505060405180910390f35b34801561065d57600080fd5b506106b2600480360381019080803573ffffffffffffffffffffffffffffffffffffffff169060200190929190803573ffffffffffffffffffffffffffffffffffffffff169060200190929190505050611f57565b6040518082815260200191505060405180910390f35b3480156106d457600080fd5b506106f76004803603810190808035600019169060200190929190505050611f7c565b005b34801561070557600080fd5b506107ec600480360381019080803590602001908201803590602001908080601f0160208091040260200160405190810160405280939291908181526020018383808284378201915050505050509192919290803590602001908201803590602001908080601f0160208091040260200160405190810160405280939291908181526020018383808284378201915050505050509192919290803590602001908201803590602001908080601f016020809104026020016040519081016040528093929190818152602001838380828437820191505050505050919291929050505061247f565b604051808215151515815260200191505060405180910390f35b6040805190810160405280600681526020017f46616369746f000000000000000000000000000000000000000000000000000081525081565b600081600360003373ffffffffffffffffffffffffffffffffffffffff1673ffffffffffffffffffffffffffffffffffffffff16815260200190815260200160002060008573ffffffffffffffffffffffffffffffffffffffff1673ffffffffffffffffffffffffffffffffffffffff168152602001908152602001600020819055508273ffffffffffffffffffffffffffffffffffffffff163373ffffffffffffffffffffffffffffffffffffffff167f6e11fb1b7f119e3f2fa29896ef5fdf8b8a2d0d4df6fe90ba8668e7d8b2ffa25e846040518082815260200191505060405180910390a36001905092915050565b60005481565b6000600260008573ffffffffffffffffffffffffffffffffffffffff1673ffffffffffffffffffffffffffffffffffffffff1681526020019081526020016000205482111515156109f0576040517f08c379a00000000000000000000000000000000000000000000000000000000081526004018080602001828103825260148152602001807f496e73756666696369656e742062616c616e636500000000000000000000000081525060200191505060405180910390fd5b600360008573ffffffffffffffffffffffffffffffffffffffff1673ffffffffffffffffffffffffffffffffffffffff16815260200190815260200160002060003373ffffffffffffffffffffffffffffffffffffffff1673ffffffffffffffffffffffffffffffffffffffff168152602001908152602001600020548211151515610ae4576040517f08c379a00000000000000000000000000000000000000000000000000000000081526004018080602001828103825260148152602001807f496e73756666696369656e742062616c616e636500000000000000000000000081525060200191505060405180910390fd5b81600260008673ffffffffffffffffffffffffffffffffffffffff1673ffffffffffffffffffffffffffffffffffffffff1681526020019081526020016000206000828254039250508190555081600260008573ffffffffffffffffffffffffffffffffffffffff1673ffffffffffffffffffffffffffffffffffffffff1681526020019081526020016000206000828254019250508190555081600360008673ffffffffffffffffffffffffffffffffffffffff1673ffffffffffffffffffffffffffffffffffffffff16815260200190815260200160002060003373ffffffffffffffffffffffffffffffffffffffff1673ffffffffffffffffffffffffffffffffffffffff168152602001908152602001600020600082825403925050819055508273ffffffffffffffffffffffffffffffffffffffff168473ffffffffffffffffffffffffffffffffffffffff167fddf252ad1be2c89b69c2b068fc378daa952ba7f163c4a11628f55a4df523b3ef846040518082815260200191505060405180910390a3600190509392505050565b601281565b6001602052806000526040600020600091509050806000018054600181600116156101000203166002900480601f016020809104026020016040519081016040528092919081815260200182805460018160011615610100020316600290048015610d295780601f10610cfe57610100808354040283529160200191610d29565b820191906000526020600020905b815481529060010190602001808311610d0c57829003601f168201915b505050505090806001015490806002018054600181600116156101000203166002900480601f016020809104026020016040519081016040528092919081815260200182805460018160011615610100020316600290048015610dcd5780601f10610da257610100808354040283529160200191610dcd565b820191906000526020600020905b815481529060010190602001808311610db057829003601f168201915b505050505090806003018054600181600116156101000203166002900480601f016020809104026020016040519081016040528092919081815260200182805460018160011615610100020316600290048015610e6b5780601f10610e4057610100808354040283529160200191610e6b565b820191906000526020600020905b815481529060010190602001808311610e4e57829003601f168201915b5050505050908060040160009054906101000a900473ffffffffffffffffffffffffffffffffffffffff16908060050154908060060154908060070154908060090154905089565b60026020528060005260406000206000915090505481565b6040805190810160405280600381526020017f464143000000000000000000000000000000000000000000000000000000000081525081565b60007f8d7f8e60639828470f9f3cd61bcc8f4022d1830cfec86d638e81fb1743590e398260016000856000191660001916815260200190815260200160002060040160009054906101000a900473ffffffffffffffffffffffffffffffffffffffff16336001600087600019166000191681526020019081526020016000206000016040518085600019166000191681526020018473ffffffffffffffffffffffffffffffffffffffff1673ffffffffffffffffffffffffffffffffffffffff1681526020018373ffffffffffffffffffffffffffffffffffffffff1673ffffffffffffffffffffffffffffffffffffffff168152602001806020018281038252838181546001816001161561010002031660029004815260200191508054600181600116156101000203166002900480156110815780601f1061105657610100808354040283529160200191611081565b820191906000526020600020905b81548152906001019060200180831161106457829003601f168201915b50509550505050505060405180910390a160018060008460001916600019168152602001908152602001600020600b0160003373ffffffffffffffffffffffffffffffffffffffff1673ffffffffffffffffffffffffffffffffffffffff1681526020019081526020016000205414156111a6577f62040b3bd9e4a1901ef23113c64eab4d6322b43739c93411a8a3b6c262a62e62338360405180806020018473ffffffffffffffffffffffffffffffffffffffff1673ffffffffffffffffffffffffffffffffffffffff1681526020018360001916600019168152602001828103825260148152602001807f41727469636c6520616c72656164792072656164000000000000000000000000815250602001935050505060405180910390a16112c6565b3373ffffffffffffffffffffffffffffffffffffffff1660016000846000191660001916815260200190815260200160002060040160009054906101000a900473ffffffffffffffffffffffffffffffffffffffff1673ffffffffffffffffffffffffffffffffffffffff1614156112c5577f62040b3bd9e4a1901ef23113c64eab4d6322b43739c93411a8a3b6c262a62e62338360405180806020018473ffffffffffffffffffffffffffffffffffffffff1673ffffffffffffffffffffffffffffffffffffffff16815260200183600019166000191681526020018281038252601e8152602001807f417574686f722063616e6e6f742072656164206f776e2061727469636c650000815250602001935050505060405180910390a15b5b60018060008460001916600019168152602001908152602001600020600b0160003373ffffffffffffffffffffffffffffffffffffffff1673ffffffffffffffffffffffffffffffffffffffff1681526020019081526020016000205414151515611399576040517f08c379a00000000000000000000000000000000000000000000000000000000081526004018080602001828103825260148152602001807f41727469636c6520616c7265616479207265616400000000000000000000000081525060200191505060405180910390fd5b3373ffffffffffffffffffffffffffffffffffffffff1660016000846000191660001916815260200190815260200160002060040160009054906101000a900473ffffffffffffffffffffffffffffffffffffffff1673ffffffffffffffffffffffffffffffffffffffff161415151561147b576040517f08c379a000000000000000000000000000000000000000000000000000000000815260040180806020018281038252601e8152602001807f417574686f722063616e6e6f742072656164206f776e2061727469636c65000081525060200191505060405180910390fd5b6001600083600019166000191681526020019081526020016000206006016000815480929190600101919050555060018060008460001916600019168152602001908152602001600020600b0160003373ffffffffffffffffffffffffffffffffffffffff1673ffffffffffffffffffffffffffffffffffffffff168152602001908152602001600020819055503073ffffffffffffffffffffffffffffffffffffffff1663a9059cbb336002600054600260003073ffffffffffffffffffffffffffffffffffffffff1673ffffffffffffffffffffffffffffffffffffffff1681526020019081526020016000205481151561157457fe5b04026040518363ffffffff167c0100000000000000000000000000000000000000000000000000000000028152600401808373ffffffffffffffffffffffffffffffffffffffff1673ffffffffffffffffffffffffffffffffffffffff16815260200182815260200192505050602060405180830381600087803b1580156115fb57600080fd5b505af115801561160f573d6000803e3d6000fd5b505050506040513d602081101561162557600080fd5b810190808051906020019092919050505015156116aa576040517f08c379a00000000000000000000000000000000000000000000000000000000081526004018080602001828103825260128152602001807f5472616e73616374696f6e206661696c6564000000000000000000000000000081525060200191505060405180910390fd5b3073ffffffffffffffffffffffffffffffffffffffff1663a9059cbb60016000856000191660001916815260200190815260200160002060040160009054906101000a900473ffffffffffffffffffffffffffffffffffffffff16600a600054600260003073ffffffffffffffffffffffffffffffffffffffff1673ffffffffffffffffffffffffffffffffffffffff1681526020019081526020016000205481151561175357fe5b04026040518363ffffffff167c0100000000000000000000000000000000000000000000000000000000028152600401808373ffffffffffffffffffffffffffffffffffffffff1673ffffffffffffffffffffffffffffffffffffffff16815260200182815260200192505050602060405180830381600087803b1580156117da57600080fd5b505af11580156117ee573d6000803e3d6000fd5b505050506040513d602081101561180457600080fd5b81019080805190602001909291905050501515611889576040517f08c379a00000000000000000000000000000000000000000000000000000000081526004018080602001828103825260128152602001807f5472616e73616374696f6e206661696c6564000000000000000000000000000081525060200191505060405180910390fd5b60019050919050565b60018060008360001916600019168152602001908152602001600020600a0160003373ffffffffffffffffffffffffffffffffffffffff1673ffffffffffffffffffffffffffffffffffffffff168152602001908152602001600020541415611b14576000600160008360001916600019168152602001908152602001600020600a0160003373ffffffffffffffffffffffffffffffffffffffff1673ffffffffffffffffffffffffffffffffffffffff168152602001908152602001600020505060016000826000191660001916815260200190815260200160002060090160008154809291906001900391905055507fcef0b5ad198817eac9187451e3eb92cc1bbee3ee4b8a241bbf7e12b5a8f0674e8160016000846000191660001916815260200190815260200160002060040160009054906101000a900473ffffffffffffffffffffffffffffffffffffffff16336001600086600019166000191681526020019081526020016000206000016040518085600019166000191681526020018473ffffffffffffffffffffffffffffffffffffffff1673ffffffffffffffffffffffffffffffffffffffff1681526020018373ffffffffffffffffffffffffffffffffffffffff1673ffffffffffffffffffffffffffffffffffffffff16815260200180602001828103825283818154600181600116156101000203166002900481526020019150805460018160011615610100020316600290048015611afe5780601f10611ad357610100808354040283529160200191611afe565b820191906000526020600020905b815481529060010190602001808311611ae157829003601f168201915b50509550505050505060405180910390a1611d92565b6000600160008360001916600019168152602001908152602001600020600a0160003373ffffffffffffffffffffffffffffffffffffffff1673ffffffffffffffffffffffffffffffffffffffff168152602001908152602001600020541415611d915760018060008360001916600019168152602001908152602001600020600a0160003373ffffffffffffffffffffffffffffffffffffffff1673ffffffffffffffffffffffffffffffffffffffff1681526020019081526020016000205050600160008260001916600019168152602001908152602001600020600901600081548092919060010191905055507ff8382263ab21d702766fae04c1c9b48aecefadac22d2f608c9193df531c134978160016000846000191660001916815260200190815260200160002060040160009054906101000a900473ffffffffffffffffffffffffffffffffffffffff16336001600086600019166000191681526020019081526020016000206000016040518085600019166000191681526020018473ffffffffffffffffffffffffffffffffffffffff1673ffffffffffffffffffffffffffffffffffffffff1681526020018373ffffffffffffffffffffffffffffffffffffffff1673ffffffffffffffffffffffffffffffffffffffff16815260200180602001828103825283818154600181600116156101000203166002900481526020019150805460018160011615610100020316600290048015611d7f5780601f10611d5457610100808354040283529160200191611d7f565b820191906000526020600020905b815481529060010190602001808311611d6257829003601f168201915b50509550505050505060405180910390a15b5b50565b600081600260003373ffffffffffffffffffffffffffffffffffffffff1673ffffffffffffffffffffffffffffffffffffffff1681526020019081526020016000205410151515611e4e576040517f08c379a00000000000000000000000000000000000000000000000000000000081526004018080602001828103825260148152602001807f496e73756666696369656e742062616c616e636500000000000000000000000081525060200191505060405180910390fd5b81600260003373ffffffffffffffffffffffffffffffffffffffff1673ffffffffffffffffffffffffffffffffffffffff1681526020019081526020016000206000828254039250508190555081600260008573ffffffffffffffffffffffffffffffffffffffff1673ffffffffffffffffffffffffffffffffffffffff168152602001908152602001600020600082825401925050819055508273ffffffffffffffffffffffffffffffffffffffff163373ffffffffffffffffffffffffffffffffffffffff167fddf252ad1be2c89b69c2b068fc378daa952ba7f163c4a11628f55a4df523b3ef846040518082815260200191505060405180910390a36001905092915050565b6003602052816000526040600020602052806000526040600020600091509150505481565b6001806000836000191660001916815260200190815260200160002060080160003373ffffffffffffffffffffffffffffffffffffffff1673ffffffffffffffffffffffffffffffffffffffff1681526020019081526020016000205414156121fe57600060016000836000191660001916815260200190815260200160002060080160003373ffffffffffffffffffffffffffffffffffffffff1673ffffffffffffffffffffffffffffffffffffffff168152602001908152602001600020505060016000826000191660001916815260200190815260200160002060070160008154809291906001900391905055507ff8382263ab21d702766fae04c1c9b48aecefadac22d2f608c9193df531c134978160016000846000191660001916815260200190815260200160002060040160009054906101000a900473ffffffffffffffffffffffffffffffffffffffff16336001600086600019166000191681526020019081526020016000206000016040518085600019166000191681526020018473ffffffffffffffffffffffffffffffffffffffff1673ffffffffffffffffffffffffffffffffffffffff1681526020018373ffffffffffffffffffffffffffffffffffffffff1673ffffffffffffffffffffffffffffffffffffffff168152602001806020018281038252838181546001816001161561010002031660029004815260200191508054600181600116156101000203166002900480156121e85780601f106121bd576101008083540402835291602001916121e8565b820191906000526020600020905b8154815290600101906020018083116121cb57829003601f168201915b50509550505050505060405180910390a161247c565b600060016000836000191660001916815260200190815260200160002060080160003373ffffffffffffffffffffffffffffffffffffffff1673ffffffffffffffffffffffffffffffffffffffff16815260200190815260200160002054141561247b576001806000836000191660001916815260200190815260200160002060080160003373ffffffffffffffffffffffffffffffffffffffff1673ffffffffffffffffffffffffffffffffffffffff1681526020019081526020016000205050600160008260001916600019168152602001908152602001600020600701600081548092919060010191905055507fcef0b5ad198817eac9187451e3eb92cc1bbee3ee4b8a241bbf7e12b5a8f0674e8160016000846000191660001916815260200190815260200160002060040160009054906101000a900473ffffffffffffffffffffffffffffffffffffffff16336001600086600019166000191681526020019081526020016000206000016040518085600019166000191681526020018473ffffffffffffffffffffffffffffffffffffffff1673ffffffffffffffffffffffffffffffffffffffff1681526020018373ffffffffffffffffffffffffffffffffffffffff1673ffffffffffffffffffffffffffffffffffffffff168152602001806020018281038252838181546001816001161561010002031660029004815260200191508054600181600116156101000203166002900480156124695780601f1061243e57610100808354040283529160200191612469565b820191906000526020600020905b81548152906001019060200180831161244c57829003601f168201915b50509550505050505060405180910390a15b5b50565b60008061248a612893565b85858533436040516020018086805190602001908083835b6020831015156124c757805182526020820191506020810190506020830392506124a2565b6001836020036101000a03801982511681845116808217855250505050505090500185805190602001908083835b60208310151561251a57805182526020820191506020810190506020830392506124f5565b6001836020036101000a03801982511681845116808217855250505050505090500184805190602001908083835b60208310151561256d5780518252602082019150602081019050602083039250612548565b6001836020036101000a0380198251168184511680821785525050505050509050018373ffffffffffffffffffffffffffffffffffffffff1673ffffffffffffffffffffffffffffffffffffffff166c01000000000000000000000000028152601401828152602001955050505050506040516020818303038152906040526040518082805190602001908083835b60208310151561262157805182526020820191506020810190506020830392506125fc565b6001836020036101000a038019825116818451168082178552505050505050905001915050604051809103902091507f3174b095a59e9d2213e3e85b2c40e1b657af9fd91a0285b9e46faba37348440a8233886040518084600019166000191681526020018373ffffffffffffffffffffffffffffffffffffffff1673ffffffffffffffffffffffffffffffffffffffff16815260200180602001828103825283818151815260200191508051906020019080838360005b838110156126f45780820151818401526020810190506126d9565b50505050905090810190601f1680156127215780820380516001836020036101000a031916815260200191505b5094505050505060405180910390a161012060405190810160405280878152602001836000191681526020018681526020018581526020013373ffffffffffffffffffffffffffffffffffffffff1681526020014381526020016000815260200160008152602001600081525090508060016000846000191660001916815260200190815260200160002060008201518160000190805190602001906127c89291906128f9565b506020820151816001019060001916905560408201518160020190805190602001906127f59291906128f9565b5060608201518160030190805190602001906128129291906128f9565b5060808201518160040160006101000a81548173ffffffffffffffffffffffffffffffffffffffff021916908373ffffffffffffffffffffffffffffffffffffffff16021790555060a0820151816005015560c0820151816006015560e0820151816007015561010082015181600901559050506001925050509392505050565b6101206040519081016040528060608152602001600080191681526020016060815260200160608152602001600073ffffffffffffffffffffffffffffffffffffffff168152602001600081526020016000815260200160008152602001600081525090565b828054600181600116156101000203166002900490600052602060002090601f016020900481019282601f1061293a57805160ff1916838001178555612968565b82800160010185558215612968579182015b8281111561296757825182559160200191906001019061294c565b5b5090506129759190612979565b5090565b61299b91905b8082111561299757600081600090555060010161297f565b5090565b905600a165627a7a723058203ffdb415342080e6affc747dd88c2a701fb0f331d569dffc5ee5d67ac14913f60029",
  "source": "pragma solidity ^0.4.24; // Set compiler version\n\n// Token contract\ncontract Facito {\n    string public constant name = \"Facito\"; // Name\n    string public constant symbol = \"FAC\"; // Symbol\n    uint8 public constant decimals = 18; // Set precision points\n    uint256 public totalSupply; // Store total supply\n\n    mapping(bytes32 => Article) public articles; // Store articles\n\n    event Transfer (\n        address indexed _from,\n        address indexed _to,\n        uint256 _value\n    );\n\n    event Approve (\n        address indexed _owner,\n        address indexed _spender,\n        uint256 _value\n    );\n\n    event NewArticle (\n        bytes32 _ID,\n        address _author,\n        string _title\n    );\n\n    event ReadArticle (\n        bytes32 _ID,\n        address _author,\n        address _reader,\n        string _title\n    );\n\n    event UpvotedPost (\n        bytes32 _ID, \n        address _author,\n        address _upvoter,\n        string _content\n    );\n\n    event DownvotedPost (\n        bytes32 _ID, \n        address _author,\n        address _downvoter,\n        string _content\n    );\n\n    event ArticleError (\n        string _message,\n        address sender,\n        bytes32 _ID\n    );\n\n    struct Article {\n        string Title;\n        bytes32 ID;\n        string Content;\n        string HeaderSource;\n        address Author;\n        uint256 BlockNumber;\n        uint256 Views;\n\n        uint256 Upvotes;\n        mapping(address => uint) Upvoters; // 0: Not upvoted, 1: upvoted\n\n        uint256 Downvotes;\n        mapping(address => uint) Downvoters; // 0: Not downvoted, 1: downvoted\n\n        mapping(address => uint) UnspentOutputs; // 0: unspent, 1: spent\n    }\n\n    struct Comment {\n        bytes32 ID;\n        string Content;\n        address Author;\n        uint256 BlockNumber;\n    }\n\n    struct Thread {\n        bytes32 ID;\n        Comment[] Comments;\n        address Author;\n        uint256 BlockNumber;\n    }\n\n    mapping(address => uint256) public balanceOf;\n    mapping(address => mapping(address => uint256)) public allowance;\n\n    constructor(uint256 _initialSupply) public {\n        balanceOf[this] = _initialSupply; // Set contract balance\n        totalSupply = _initialSupply; // Set total supply\n    }\n\n    function transfer(address _to, uint256 _value) public returns (bool success) {\n        require(balanceOf[msg.sender] >= _value, \"Insufficient balance\"); // Check for invalid balance\n\n        balanceOf[msg.sender] -= _value; // Set sender balance\n        balanceOf[_to] += _value; // Set recipient balance\n\n        emit Transfer(msg.sender, _to, _value); // Emit transfer event\n\n        return true; // Return success\n    }\n\n    function approve(address _spender, uint256 _value) public returns (bool success) {\n        allowance[msg.sender][_spender] = _value; // Set allowance\n\n        emit Approve(msg.sender, _spender, _value); // Emit approve event\n\n        return true; // Return success\n    }\n\n    function transferFrom(address _from, address _to, uint256 _value) public returns (bool success) {\n        require(_value <= balanceOf[_from], \"Insufficient balance\"); // Check allowance is valid\n        require(_value <= allowance[_from][msg.sender], \"Insufficient balance\"); // Check allowance is valid\n\n        balanceOf[_from] -= _value; // Remove from sender\n        balanceOf[_to] += _value; // Add to destination\n\n        allowance[_from][msg.sender] -= _value; // Remove allowance\n\n        emit Transfer(_from, _to, _value); // Emit transfer event\n\n        return true; // Return success\n    }\n\n    function newArticle(string _title, string _content, string _headerSource) public returns (bool success) {\n        bytes32 _id = keccak256(abi.encodePacked(_title, _content, _headerSource, msg.sender, block.number)); // Hash ID\n\n        emit NewArticle(_id, msg.sender, _title); // Emit new article\n\n        Article memory article = Article(_title, _id, _content, _headerSource, msg.sender, block.number, 0, 0, 0); // Initialize article\n\n        articles[_id] = article; // Push new article\n\n        return true; // Return success\n    }\n\n    function readArticle(bytes32 _id) public returns (bool success) {\n        emit ReadArticle(_id, articles[_id].Author, msg.sender, articles[_id].Title); // Emit read article\n\n        if (articles[_id].UnspentOutputs[msg.sender] == 1) {\n            emit ArticleError(\"Article already read\", msg.sender, _id); // Emit error\n        } else if (articles[_id].Author == msg.sender) {\n            emit ArticleError(\"Author cannot read own article\", msg.sender, _id); // Emit error\n        }\n\n        require(articles[_id].UnspentOutputs[msg.sender] != 1, \"Article already read\"); // Check article hasn't already been read\n        require(articles[_id].Author != msg.sender, \"Author cannot read own article\"); // Check author isn't reading own article\n\n        articles[_id].Views++; // Increment view count\n\n        articles[_id].UnspentOutputs[msg.sender] = 1; // Set spent\n\n        require(this.transfer(msg.sender, (balanceOf[this]/totalSupply)*2), \"Transaction failed\"); // Transfer coins to reader\n        require(this.transfer(articles[_id].Author, (balanceOf[this]/totalSupply)*10), \"Transaction failed\"); // Transfer coins to author\n\n        return true; // Return success\n    }\n\n    function upvotePost(bytes32 _id) public {\n        if (articles[_id].Upvoters[msg.sender] == 1) { // Check already upvoted\n            articles[_id].Upvoters[msg.sender] == 0; // Remove upvote\n\n            articles[_id].Upvotes--; // Decrement\n\n            emit DownvotedPost(_id, articles[_id].Author, msg.sender, articles[_id].Title); // Emit event\n        } else if (articles[_id].Upvoters[msg.sender] == 0) { // Check not already upvoted\n            articles[_id].Upvoters[msg.sender] == 1; // Add upvote\n\n            articles[_id].Upvotes++; // Increment\n\n            emit UpvotedPost(_id, articles[_id].Author, msg.sender, articles[_id].Title); // Emit event\n        }\n    }\n\n    function downvotePost(bytes32 _id) public {\n        if (articles[_id].Downvoters[msg.sender] == 1) { // Check already downvoted\n            articles[_id].Downvoters[msg.sender] == 0; // Remove downvote\n\n            articles[_id].Downvotes--; // Decrement\n\n            emit UpvotedPost(_id, articles[_id].Author, msg.sender, articles[_id].Title); // Emit event\n        } else if (articles[_id].Downvoters[msg.sender] == 0) { // Check not already downvoted\n            articles[_id].Downvoters[msg.sender] == 1; // Add downvote\n\n            articles[_id].Downvotes++; // Increment\n\n            emit DownvotedPost(_id, articles[_id].Author, msg.sender, articles[_id].Title); // Emit event\n        }\n    }\n}\n\n/*\nTODO:\n    - upvotes\n    - downvotes\n    - comments\n    - threads\n    - comment upvotes/downvotes\n*/",
  "sourcePath": "/Users/dowlandaiello/Desktop/GitHub/facito/crypto/contracts/Facito.sol",
  "compiler": {
    "name": "solc",
    "version": "0.4.24+commit.e67f0147.Emscripten.clang"
  },
  "schemaVersion": "2.0.1",
  "updatedAt": "2018-10-02T00:54:09.572Z"
}