{
  "contractName": "Facito",
  "abi": [
    {
      "constant": true,
      "inputs": [],
      "name": "name",
      "outputs": [
        {
          "name": "",
          "type": "string"
        }
      ],
      "payable": false,
      "stateMutability": "view",
      "type": "function"
    },
    {
      "constant": true,
      "inputs": [],
      "name": "totalSupply",
      "outputs": [
        {
          "name": "",
          "type": "uint256"
        }
      ],
      "payable": false,
      "stateMutability": "view",
      "type": "function"
    },
    {
      "constant": true,
      "inputs": [],
      "name": "decimals",
      "outputs": [
        {
          "name": "",
          "type": "uint8"
        }
      ],
      "payable": false,
      "stateMutability": "view",
      "type": "function"
    },
    {
      "constant": true,
      "inputs": [
        {
          "name": "",
          "type": "bytes32"
        }
      ],
      "name": "articles",
      "outputs": [
        {
          "name": "Title",
          "type": "string"
        },
        {
          "name": "ID",
          "type": "bytes32"
        },
        {
          "name": "Content",
          "type": "string"
        },
        {
          "name": "HeaderSource",
          "type": "string"
        },
        {
          "name": "Author",
          "type": "address"
        }
      ],
      "payable": false,
      "stateMutability": "view",
      "type": "function"
    },
    {
      "constant": true,
      "inputs": [
        {
          "name": "",
          "type": "address"
        }
      ],
      "name": "balanceOf",
      "outputs": [
        {
          "name": "",
          "type": "uint256"
        }
      ],
      "payable": false,
      "stateMutability": "view",
      "type": "function"
    },
    {
      "constant": true,
      "inputs": [],
      "name": "symbol",
      "outputs": [
        {
          "name": "",
          "type": "string"
        }
      ],
      "payable": false,
      "stateMutability": "view",
      "type": "function"
    },
    {
      "constant": true,
      "inputs": [
        {
          "name": "",
          "type": "address"
        },
        {
          "name": "",
          "type": "address"
        }
      ],
      "name": "allowance",
      "outputs": [
        {
          "name": "",
          "type": "uint256"
        }
      ],
      "payable": false,
      "stateMutability": "view",
      "type": "function"
    },
    {
      "inputs": [
        {
          "name": "_initialSupply",
          "type": "uint256"
        }
      ],
      "payable": false,
      "stateMutability": "nonpayable",
      "type": "constructor"
    },
    {
      "anonymous": false,
      "inputs": [
        {
          "indexed": true,
          "name": "_from",
          "type": "address"
        },
        {
          "indexed": true,
          "name": "_to",
          "type": "address"
        },
        {
          "indexed": false,
          "name": "_value",
          "type": "uint256"
        }
      ],
      "name": "Transfer",
      "type": "event"
    },
    {
      "anonymous": false,
      "inputs": [
        {
          "indexed": true,
          "name": "_owner",
          "type": "address"
        },
        {
          "indexed": true,
          "name": "_spender",
          "type": "address"
        },
        {
          "indexed": false,
          "name": "_value",
          "type": "uint256"
        }
      ],
      "name": "Approve",
      "type": "event"
    },
    {
      "anonymous": false,
      "inputs": [
        {
          "indexed": false,
          "name": "_ID",
          "type": "bytes32"
        },
        {
          "indexed": false,
          "name": "_author",
          "type": "address"
        },
        {
          "indexed": false,
          "name": "_title",
          "type": "string"
        }
      ],
      "name": "NewArticle",
      "type": "event"
    },
    {
      "anonymous": false,
      "inputs": [
        {
          "indexed": false,
          "name": "_ID",
          "type": "bytes32"
        },
        {
          "indexed": false,
          "name": "_author",
          "type": "address"
        },
        {
          "indexed": false,
          "name": "_reader",
          "type": "address"
        },
        {
          "indexed": false,
          "name": "_title",
          "type": "string"
        }
      ],
      "name": "ReadArticle",
      "type": "event"
    },
    {
      "constant": false,
      "inputs": [
        {
          "name": "_to",
          "type": "address"
        },
        {
          "name": "_value",
          "type": "uint256"
        }
      ],
      "name": "transfer",
      "outputs": [
        {
          "name": "success",
          "type": "bool"
        }
      ],
      "payable": false,
      "stateMutability": "nonpayable",
      "type": "function"
    },
    {
      "constant": false,
      "inputs": [
        {
          "name": "_spender",
          "type": "address"
        },
        {
          "name": "_value",
          "type": "uint256"
        }
      ],
      "name": "approve",
      "outputs": [
        {
          "name": "success",
          "type": "bool"
        }
      ],
      "payable": false,
      "stateMutability": "nonpayable",
      "type": "function"
    },
    {
      "constant": false,
      "inputs": [
        {
          "name": "_from",
          "type": "address"
        },
        {
          "name": "_to",
          "type": "address"
        },
        {
          "name": "_value",
          "type": "uint256"
        }
      ],
      "name": "transferFrom",
      "outputs": [
        {
          "name": "success",
          "type": "bool"
        }
      ],
      "payable": false,
      "stateMutability": "nonpayable",
      "type": "function"
    },
    {
      "constant": false,
      "inputs": [
        {
          "name": "_title",
          "type": "string"
        },
        {
          "name": "_content",
          "type": "string"
        },
        {
          "name": "_headerSource",
          "type": "string"
        }
      ],
      "name": "newArticle",
      "outputs": [
        {
          "name": "success",
          "type": "bool"
        }
      ],
      "payable": false,
      "stateMutability": "nonpayable",
      "type": "function"
    },
    {
      "constant": false,
      "inputs": [
        {
          "name": "_id",
          "type": "bytes32"
        }
      ],
      "name": "readArticle",
      "outputs": [
        {
          "name": "success",
          "type": "bool"
        }
      ],
      "payable": false,
      "stateMutability": "nonpayable",
      "type": "function"
    }
  ],
  "bytecode": "0x608060405234801561001057600080fd5b50604051602080611c0f8339810180604052810190808051906020019092919050505080600260003073ffffffffffffffffffffffffffffffffffffffff1673ffffffffffffffffffffffffffffffffffffffff168152602001908152602001600020819055508060008190555050611b818061008e6000396000f3006080604052600436106100ba576000357c0100000000000000000000000000000000000000000000000000000000900463ffffffff16806306fdde03146100bf578063095ea7b31461014f57806318160ddd146101b457806323b872dd146101df578063313ce5671461026457806351da8a4f1461029557806370a082311461045957806395d89b41146104b0578063a3b2c41e14610540578063a9059cbb14610589578063dd62ed3e146105ee578063e503f70d14610665575b600080fd5b3480156100cb57600080fd5b506100d4610772565b6040518080602001828103825283818151815260200191508051906020019080838360005b838110156101145780820151818401526020810190506100f9565b50505050905090810190601f1680156101415780820380516001836020036101000a031916815260200191505b509250505060405180910390f35b34801561015b57600080fd5b5061019a600480360381019080803573ffffffffffffffffffffffffffffffffffffffff169060200190929190803590602001909291905050506107ab565b604051808215151515815260200191505060405180910390f35b3480156101c057600080fd5b506101c961089d565b6040518082815260200191505060405180910390f35b3480156101eb57600080fd5b5061024a600480360381019080803573ffffffffffffffffffffffffffffffffffffffff169060200190929190803573ffffffffffffffffffffffffffffffffffffffff169060200190929190803590602001909291905050506108a3565b604051808215151515815260200191505060405180910390f35b34801561027057600080fd5b50610279610be4565b604051808260ff1660ff16815260200191505060405180910390f35b3480156102a157600080fd5b506102c46004803603810190808035600019169060200190929190505050610be9565b6040518080602001866000191660001916815260200180602001806020018573ffffffffffffffffffffffffffffffffffffffff1673ffffffffffffffffffffffffffffffffffffffff168152602001848103845289818151815260200191508051906020019080838360005b8381101561034c578082015181840152602081019050610331565b50505050905090810190601f1680156103795780820380516001836020036101000a031916815260200191505b50848103835287818151815260200191508051906020019080838360005b838110156103b2578082015181840152602081019050610397565b50505050905090810190601f1680156103df5780820380516001836020036101000a031916815260200191505b50848103825286818151815260200191508051906020019080838360005b838110156104185780820151818401526020810190506103fd565b50505050905090810190601f1680156104455780820380516001836020036101000a031916815260200191505b509850505050505050505060405180910390f35b34801561046557600080fd5b5061049a600480360381019080803573ffffffffffffffffffffffffffffffffffffffff169060200190929190505050610e07565b6040518082815260200191505060405180910390f35b3480156104bc57600080fd5b506104c5610e1f565b6040518080602001828103825283818151815260200191508051906020019080838360005b838110156105055780820151818401526020810190506104ea565b50505050905090810190601f1680156105325780820380516001836020036101000a031916815260200191505b509250505060405180910390f35b34801561054c57600080fd5b5061056f6004803603810190808035600019169060200190929190505050610e58565b604051808215151515815260200191505060405180910390f35b34801561059557600080fd5b506105d4600480360381019080803573ffffffffffffffffffffffffffffffffffffffff169060200190929190803590602001909291905050506112f6565b604051808215151515815260200191505060405180910390f35b3480156105fa57600080fd5b5061064f600480360381019080803573ffffffffffffffffffffffffffffffffffffffff169060200190929190803573ffffffffffffffffffffffffffffffffffffffff1690602001909291905050506114b8565b6040518082815260200191505060405180910390f35b34801561067157600080fd5b50610758600480360381019080803590602001908201803590602001908080601f0160208091040260200160405190810160405280939291908181526020018383808284378201915050505050509192919290803590602001908201803590602001908080601f0160208091040260200160405190810160405280939291908181526020018383808284378201915050505050509192919290803590602001908201803590602001908080601f01602080910402602001604051908101604052809392919081815260200183838082843782019150505050505091929192905050506114dd565b604051808215151515815260200191505060405180910390f35b6040805190810160405280600681526020017f46616369746f000000000000000000000000000000000000000000000000000081525081565b600081600360003373ffffffffffffffffffffffffffffffffffffffff1673ffffffffffffffffffffffffffffffffffffffff16815260200190815260200160002060008573ffffffffffffffffffffffffffffffffffffffff1673ffffffffffffffffffffffffffffffffffffffff168152602001908152602001600020819055508273ffffffffffffffffffffffffffffffffffffffff163373ffffffffffffffffffffffffffffffffffffffff167f6e11fb1b7f119e3f2fa29896ef5fdf8b8a2d0d4df6fe90ba8668e7d8b2ffa25e846040518082815260200191505060405180910390a36001905092915050565b60005481565b6000600260008573ffffffffffffffffffffffffffffffffffffffff1673ffffffffffffffffffffffffffffffffffffffff16815260200190815260200160002054821115151561095c576040517f08c379a00000000000000000000000000000000000000000000000000000000081526004018080602001828103825260148152602001807f496e73756666696369656e742062616c616e636500000000000000000000000081525060200191505060405180910390fd5b600360008573ffffffffffffffffffffffffffffffffffffffff1673ffffffffffffffffffffffffffffffffffffffff16815260200190815260200160002060003373ffffffffffffffffffffffffffffffffffffffff1673ffffffffffffffffffffffffffffffffffffffff168152602001908152602001600020548211151515610a50576040517f08c379a00000000000000000000000000000000000000000000000000000000081526004018080602001828103825260148152602001807f496e73756666696369656e742062616c616e636500000000000000000000000081525060200191505060405180910390fd5b81600260008673ffffffffffffffffffffffffffffffffffffffff1673ffffffffffffffffffffffffffffffffffffffff1681526020019081526020016000206000828254039250508190555081600260008573ffffffffffffffffffffffffffffffffffffffff1673ffffffffffffffffffffffffffffffffffffffff1681526020019081526020016000206000828254019250508190555081600360008673ffffffffffffffffffffffffffffffffffffffff1673ffffffffffffffffffffffffffffffffffffffff16815260200190815260200160002060003373ffffffffffffffffffffffffffffffffffffffff1673ffffffffffffffffffffffffffffffffffffffff168152602001908152602001600020600082825403925050819055508273ffffffffffffffffffffffffffffffffffffffff168473ffffffffffffffffffffffffffffffffffffffff167fddf252ad1be2c89b69c2b068fc378daa952ba7f163c4a11628f55a4df523b3ef846040518082815260200191505060405180910390a3600190509392505050565b601281565b6001602052806000526040600020600091509050806000018054600181600116156101000203166002900480601f016020809104026020016040519081016040528092919081815260200182805460018160011615610100020316600290048015610c955780601f10610c6a57610100808354040283529160200191610c95565b820191906000526020600020905b815481529060010190602001808311610c7857829003601f168201915b505050505090806001015490806002018054600181600116156101000203166002900480601f016020809104026020016040519081016040528092919081815260200182805460018160011615610100020316600290048015610d395780601f10610d0e57610100808354040283529160200191610d39565b820191906000526020600020905b815481529060010190602001808311610d1c57829003601f168201915b505050505090806003018054600181600116156101000203166002900480601f016020809104026020016040519081016040528092919081815260200182805460018160011615610100020316600290048015610dd75780601f10610dac57610100808354040283529160200191610dd7565b820191906000526020600020905b815481529060010190602001808311610dba57829003601f168201915b5050505050908060040160009054906101000a900473ffffffffffffffffffffffffffffffffffffffff16905085565b60026020528060005260406000206000915090505481565b6040805190810160405280600381526020017f464143000000000000000000000000000000000000000000000000000000000081525081565b60006001806000846000191660001916815260200190815260200160002060050160003373ffffffffffffffffffffffffffffffffffffffff1673ffffffffffffffffffffffffffffffffffffffff1681526020019081526020016000205414151515610f2d576040517f08c379a00000000000000000000000000000000000000000000000000000000081526004018080602001828103825260148152602001807f41727469636c6520616c7265616479207265616400000000000000000000000081525060200191505060405180910390fd5b3373ffffffffffffffffffffffffffffffffffffffff1660016000846000191660001916815260200190815260200160002060040160009054906101000a900473ffffffffffffffffffffffffffffffffffffffff1673ffffffffffffffffffffffffffffffffffffffff161415151561100f576040517f08c379a000000000000000000000000000000000000000000000000000000000815260040180806020018281038252601e8152602001807f417574686f722063616e6e6f742072656164206f776e2061727469636c65000081525060200191505060405180910390fd5b7f8d7f8e60639828470f9f3cd61bcc8f4022d1830cfec86d638e81fb1743590e398260016000856000191660001916815260200190815260200160002060040160009054906101000a900473ffffffffffffffffffffffffffffffffffffffff16336001600087600019166000191681526020019081526020016000206000016040518085600019166000191681526020018473ffffffffffffffffffffffffffffffffffffffff1673ffffffffffffffffffffffffffffffffffffffff1681526020018373ffffffffffffffffffffffffffffffffffffffff1673ffffffffffffffffffffffffffffffffffffffff1681526020018060200182810382528381815460018160011615610100020316600290048152602001915080546001816001161561010002031660029004801561118a5780601f1061115f5761010080835404028352916020019161118a565b820191906000526020600020905b81548152906001019060200180831161116d57829003601f168201915b50509550505050505060405180910390a16001806000846000191660001916815260200190815260200160002060050160003373ffffffffffffffffffffffffffffffffffffffff1673ffffffffffffffffffffffffffffffffffffffff16815260200190815260200160002081905550611254336002600054600260003073ffffffffffffffffffffffffffffffffffffffff1673ffffffffffffffffffffffffffffffffffffffff1681526020019081526020016000205481151561124d57fe5b04026112f6565b506112ec60016000846000191660001916815260200190815260200160002060040160009054906101000a900473ffffffffffffffffffffffffffffffffffffffff16600a600054600260003073ffffffffffffffffffffffffffffffffffffffff1673ffffffffffffffffffffffffffffffffffffffff168152602001908152602001600020548115156112e557fe5b04026112f6565b5060019050919050565b600081600260003373ffffffffffffffffffffffffffffffffffffffff1673ffffffffffffffffffffffffffffffffffffffff16815260200190815260200160002054101515156113af576040517f08c379a00000000000000000000000000000000000000000000000000000000081526004018080602001828103825260148152602001807f496e73756666696369656e742062616c616e636500000000000000000000000081525060200191505060405180910390fd5b81600260003373ffffffffffffffffffffffffffffffffffffffff1673ffffffffffffffffffffffffffffffffffffffff1681526020019081526020016000206000828254039250508190555081600260008573ffffffffffffffffffffffffffffffffffffffff1673ffffffffffffffffffffffffffffffffffffffff168152602001908152602001600020600082825401925050819055508273ffffffffffffffffffffffffffffffffffffffff163373ffffffffffffffffffffffffffffffffffffffff167fddf252ad1be2c89b69c2b068fc378daa952ba7f163c4a11628f55a4df523b3ef846040518082815260200191505060405180910390a36001905092915050565b6003602052816000526040600020602052806000526040600020600091509150505481565b6000806114e8611a67565b85858533426040516020018086805190602001908083835b6020831015156115255780518252602082019150602081019050602083039250611500565b6001836020036101000a03801982511681845116808217855250505050505090500185805190602001908083835b6020831015156115785780518252602082019150602081019050602083039250611553565b6001836020036101000a03801982511681845116808217855250505050505090500184805190602001908083835b6020831015156115cb57805182526020820191506020810190506020830392506115a6565b6001836020036101000a0380198251168184511680821785525050505050509050018373ffffffffffffffffffffffffffffffffffffffff1673ffffffffffffffffffffffffffffffffffffffff166c01000000000000000000000000028152601401828152602001955050505050506040516020818303038152906040526040518082805190602001908083835b60208310151561167f578051825260208201915060208101905060208303925061165a565b6001836020036101000a038019825116818451168082178552505050505050905001915050604051809103902091507f3174b095a59e9d2213e3e85b2c40e1b657af9fd91a0285b9e46faba37348440a8233886040518084600019166000191681526020018373ffffffffffffffffffffffffffffffffffffffff1673ffffffffffffffffffffffffffffffffffffffff16815260200180602001828103825283818151815260200191508051906020019080838360005b83811015611752578082015181840152602081019050611737565b50505050905090810190601f16801561177f5780820380516001836020036101000a031916815260200191505b5094505050505060405180910390a160a060405190810160405280878152602001836000191681526020018681526020018581526020013373ffffffffffffffffffffffffffffffffffffffff1681525090508060016000888888336040516020018085805190602001908083835b60208310151561181357805182526020820191506020810190506020830392506117ee565b6001836020036101000a03801982511681845116808217855250505050505090500184805190602001908083835b6020831015156118665780518252602082019150602081019050602083039250611841565b6001836020036101000a03801982511681845116808217855250505050505090500183805190602001908083835b6020831015156118b95780518252602082019150602081019050602083039250611894565b6001836020036101000a0380198251168184511680821785525050505050509050018273ffffffffffffffffffffffffffffffffffffffff1673ffffffffffffffffffffffffffffffffffffffff166c010000000000000000000000000281526014019450505050506040516020818303038152906040526040518082805190602001908083835b6020831015156119665780518252602082019150602081019050602083039250611941565b6001836020036101000a03801982511681845116808217855250505050505090500191505060405180910390206000191660001916815260200190815260200160002060008201518160000190805190602001906119c5929190611ab0565b506020820151816001019060001916905560408201518160020190805190602001906119f2929190611ab0565b506060820151816003019080519060200190611a0f929190611ab0565b5060808201518160040160006101000a81548173ffffffffffffffffffffffffffffffffffffffff021916908373ffffffffffffffffffffffffffffffffffffffff1602179055509050506001925050509392505050565b60a06040519081016040528060608152602001600080191681526020016060815260200160608152602001600073ffffffffffffffffffffffffffffffffffffffff1681525090565b828054600181600116156101000203166002900490600052602060002090601f016020900481019282601f10611af157805160ff1916838001178555611b1f565b82800160010185558215611b1f579182015b82811115611b1e578251825591602001919060010190611b03565b5b509050611b2c9190611b30565b5090565b611b5291905b80821115611b4e576000816000905550600101611b36565b5090565b905600a165627a7a72305820b5764a8b79f0b7cda1c4c7e00c89198b9bb12b5d2a2df82c991e700494c7a58b0029",
  "source": "pragma solidity ^0.4.24; // Set compiler version\r\n\r\n// Token contract\r\ncontract Facito {\r\n    string public constant name = \"Facito\"; // Name\r\n    string public constant symbol = \"FAC\"; // Symbol\r\n    uint8 public constant decimals = 18; // Set precision points\r\n    uint256 public totalSupply; // Store total supply\r\n\r\n    mapping(bytes32 => Article) public articles; // Store articles\r\n\r\n    event Transfer (\r\n        address indexed _from,\r\n        address indexed _to,\r\n        uint256 _value\r\n    );\r\n\r\n    event Approve (\r\n        address indexed _owner,\r\n        address indexed _spender,\r\n        uint256 _value\r\n    );\r\n\r\n    event NewArticle (\r\n        bytes32 _ID,\r\n        address _author,\r\n        string _title\r\n    );\r\n\r\n    event ReadArticle (\r\n        bytes32 _ID,\r\n        address _author,\r\n        address _reader,\r\n        string _title\r\n    );\r\n\r\n    struct Article {\r\n        string Title;\r\n        bytes32 ID;\r\n        string Content;\r\n        string HeaderSource;\r\n        address Author;\r\n        mapping(address => uint) UnspentOutputs;\r\n    }\r\n\r\n    mapping(address => uint256) public balanceOf;\r\n    mapping(address => mapping(address => uint256)) public allowance;\r\n\r\n    constructor(uint256 _initialSupply) public {\r\n        balanceOf[this] = _initialSupply; // Set contract balance\r\n        totalSupply = _initialSupply; // Set total supply\r\n    }\r\n\r\n    function transfer(address _to, uint256 _value) public returns (bool success) {\r\n        require(balanceOf[msg.sender] >= _value, \"Insufficient balance\"); // Check for invalid balance\r\n\r\n        balanceOf[msg.sender] -= _value; // Set sender balance\r\n        balanceOf[_to] += _value; // Set recipient balance\r\n\r\n        emit Transfer(msg.sender, _to, _value); // Emit transfer event\r\n\r\n        return true; // Return success\r\n    }\r\n\r\n    function approve(address _spender, uint256 _value) public returns (bool success) {\r\n        allowance[msg.sender][_spender] = _value; // Set allowance\r\n\r\n        emit Approve(msg.sender, _spender, _value); // Emit approve event\r\n\r\n        return true; // Return success\r\n    }\r\n\r\n    function transferFrom(address _from, address _to, uint256 _value) public returns (bool success) {\r\n        require(_value <= balanceOf[_from], \"Insufficient balance\"); // Check allowance is valid\r\n        require(_value <= allowance[_from][msg.sender], \"Insufficient balance\"); // Check allowance is valid\r\n\r\n        balanceOf[_from] -= _value; // Remove from sender\r\n        balanceOf[_to] += _value; // Add to destination\r\n\r\n        allowance[_from][msg.sender] -= _value; // Remove allowance\r\n\r\n        emit Transfer(_from, _to, _value); // Emit transfer event\r\n\r\n        return true; // Return success\r\n    }\r\n\r\n    function newArticle(string _title, string _content, string _headerSource) public returns (bool success) {\r\n        bytes32 _id = keccak256(abi.encodePacked(_title, _content, _headerSource, msg.sender, block.timestamp)); // Hash ID\r\n\r\n        emit NewArticle(_id, msg.sender, _title); // Emit new article\r\n\r\n        Article memory article = Article(_title, _id, _content, _headerSource, msg.sender); // Initialize article\r\n\r\n        articles[keccak256(abi.encodePacked(_title, _content, _headerSource, msg.sender))] = article; // Push new article\r\n\r\n        return true; // Return success\r\n    }\r\n\r\n    function readArticle(bytes32 _id) public returns (bool success) {\r\n        require(articles[_id].UnspentOutputs[msg.sender] != 1, \"Article already read\"); // Check article hasn't already been read\r\n        require(articles[_id].Author != msg.sender, \"Author cannot read own article\"); // Check author isn't reading own article\r\n\r\n        emit ReadArticle(_id, articles[_id].Author, msg.sender, articles[_id].Title); // Emit read article\r\n\r\n        articles[_id].UnspentOutputs[msg.sender] = 1; // Set spent\r\n\r\n        transfer(msg.sender, (balanceOf[this]/totalSupply)*2); // Transfer coins to reader\r\n        transfer(articles[_id].Author, (balanceOf[this]/totalSupply)*10); // Transfer coins to author\r\n\r\n        return true; // Return success\r\n    }\r\n}",
  "sourcePath": "R:\\facito\\crypto\\contracts\\Facito.sol",
  "compiler": {
    "name": "solc",
    "version": "0.4.24+commit.e67f0147.Emscripten.clang"
  },
  "schemaVersion": "2.0.1",
  "updatedAt": "2018-09-30T15:14:43.069Z"
}