{
  "contractName": "Facito",
  "abi": [
    {
      "constant": true,
      "inputs": [],
      "name": "name",
      "outputs": [
        {
          "name": "",
          "type": "string"
        }
      ],
      "payable": false,
      "stateMutability": "view",
      "type": "function"
    },
    {
      "constant": true,
      "inputs": [],
      "name": "totalSupply",
      "outputs": [
        {
          "name": "",
          "type": "uint256"
        }
      ],
      "payable": false,
      "stateMutability": "view",
      "type": "function"
    },
    {
      "constant": true,
      "inputs": [
        {
          "name": "",
          "type": "bytes32"
        }
      ],
      "name": "articles",
      "outputs": [
        {
          "name": "Title",
          "type": "string"
        },
        {
          "name": "ID",
          "type": "bytes32"
        },
        {
          "name": "Content",
          "type": "string"
        },
        {
          "name": "HeaderSource",
          "type": "string"
        },
        {
          "name": "Author",
          "type": "address"
        }
      ],
      "payable": false,
      "stateMutability": "view",
      "type": "function"
    },
    {
      "constant": true,
      "inputs": [
        {
          "name": "",
          "type": "address"
        }
      ],
      "name": "balanceOf",
      "outputs": [
        {
          "name": "",
          "type": "uint256"
        }
      ],
      "payable": false,
      "stateMutability": "view",
      "type": "function"
    },
    {
      "constant": true,
      "inputs": [],
      "name": "symbol",
      "outputs": [
        {
          "name": "",
          "type": "string"
        }
      ],
      "payable": false,
      "stateMutability": "view",
      "type": "function"
    },
    {
      "constant": true,
      "inputs": [
        {
          "name": "",
          "type": "address"
        },
        {
          "name": "",
          "type": "address"
        }
      ],
      "name": "allowance",
      "outputs": [
        {
          "name": "",
          "type": "uint256"
        }
      ],
      "payable": false,
      "stateMutability": "view",
      "type": "function"
    },
    {
      "inputs": [
        {
          "name": "_initialSupply",
          "type": "uint256"
        }
      ],
      "payable": false,
      "stateMutability": "nonpayable",
      "type": "constructor"
    },
    {
      "anonymous": false,
      "inputs": [
        {
          "indexed": true,
          "name": "_from",
          "type": "address"
        },
        {
          "indexed": true,
          "name": "_to",
          "type": "address"
        },
        {
          "indexed": false,
          "name": "_value",
          "type": "uint256"
        }
      ],
      "name": "Transfer",
      "type": "event"
    },
    {
      "anonymous": false,
      "inputs": [
        {
          "indexed": true,
          "name": "_owner",
          "type": "address"
        },
        {
          "indexed": true,
          "name": "_spender",
          "type": "address"
        },
        {
          "indexed": false,
          "name": "_value",
          "type": "uint256"
        }
      ],
      "name": "Approve",
      "type": "event"
    },
    {
      "constant": false,
      "inputs": [
        {
          "name": "_to",
          "type": "address"
        },
        {
          "name": "_value",
          "type": "uint256"
        }
      ],
      "name": "transfer",
      "outputs": [
        {
          "name": "success",
          "type": "bool"
        }
      ],
      "payable": false,
      "stateMutability": "nonpayable",
      "type": "function"
    },
    {
      "constant": false,
      "inputs": [
        {
          "name": "_spender",
          "type": "address"
        },
        {
          "name": "_value",
          "type": "uint256"
        }
      ],
      "name": "approve",
      "outputs": [
        {
          "name": "success",
          "type": "bool"
        }
      ],
      "payable": false,
      "stateMutability": "nonpayable",
      "type": "function"
    },
    {
      "constant": false,
      "inputs": [
        {
          "name": "_from",
          "type": "address"
        },
        {
          "name": "_to",
          "type": "address"
        },
        {
          "name": "_value",
          "type": "uint256"
        }
      ],
      "name": "transferFrom",
      "outputs": [
        {
          "name": "success",
          "type": "bool"
        }
      ],
      "payable": false,
      "stateMutability": "nonpayable",
      "type": "function"
    },
    {
      "constant": false,
      "inputs": [
        {
          "name": "_title",
          "type": "string"
        },
        {
          "name": "_content",
          "type": "string"
        },
        {
          "name": "_headerSource",
          "type": "string"
        },
        {
          "name": "_author",
          "type": "address"
        }
      ],
      "name": "newArticle",
      "outputs": [
        {
          "name": "success",
          "type": "bool"
        }
      ],
      "payable": false,
      "stateMutability": "nonpayable",
      "type": "function"
    },
    {
      "constant": false,
      "inputs": [
        {
          "name": "_id",
          "type": "bytes32"
        }
      ],
      "name": "readArticle",
      "outputs": [
        {
          "name": "success",
          "type": "bool"
        }
      ],
      "payable": false,
      "stateMutability": "nonpayable",
      "type": "function"
    }
  ],
  "bytecode": "0x60806040526040805190810160405280600681526020017f46616369746f0000000000000000000000000000000000000000000000000000815250600090805190602001906200005192919062000123565b506040805190810160405280600381526020017f4641430000000000000000000000000000000000000000000000000000000000815250600190805190602001906200009f92919062000123565b50348015620000ad57600080fd5b5060405160208062001ab68339810180604052810190808051906020019092919050505080600460003073ffffffffffffffffffffffffffffffffffffffff1673ffffffffffffffffffffffffffffffffffffffff168152602001908152602001600020819055508060028190555050620001d2565b828054600181600116156101000203166002900490600052602060002090601f016020900481019282601f106200016657805160ff191683800117855562000197565b8280016001018555821562000197579182015b828111156200019657825182559160200191906001019062000179565b5b509050620001a69190620001aa565b5090565b620001cf91905b80821115620001cb576000816000905550600101620001b1565b5090565b90565b6118d480620001e26000396000f3006080604052600436106100af576000357c0100000000000000000000000000000000000000000000000000000000900463ffffffff16806306fdde03146100b4578063095ea7b31461014457806318160ddd146101a957806323b872dd146101d457806351da8a4f1461025957806370a082311461041d57806395d89b4114610474578063a3b2c41e14610504578063a9059cbb1461054d578063dd62ed3e146105b2578063e1cb551514610629575b600080fd5b3480156100c057600080fd5b506100c9610756565b6040518080602001828103825283818151815260200191508051906020019080838360005b838110156101095780820151818401526020810190506100ee565b50505050905090810190601f1680156101365780820380516001836020036101000a031916815260200191505b509250505060405180910390f35b34801561015057600080fd5b5061018f600480360381019080803573ffffffffffffffffffffffffffffffffffffffff169060200190929190803590602001909291905050506107f4565b604051808215151515815260200191505060405180910390f35b3480156101b557600080fd5b506101be6108e6565b6040518082815260200191505060405180910390f35b3480156101e057600080fd5b5061023f600480360381019080803573ffffffffffffffffffffffffffffffffffffffff169060200190929190803573ffffffffffffffffffffffffffffffffffffffff169060200190929190803590602001909291905050506108ec565b604051808215151515815260200191505060405180910390f35b34801561026557600080fd5b506102886004803603810190808035600019169060200190929190505050610c2d565b6040518080602001866000191660001916815260200180602001806020018573ffffffffffffffffffffffffffffffffffffffff1673ffffffffffffffffffffffffffffffffffffffff168152602001848103845289818151815260200191508051906020019080838360005b838110156103105780820151818401526020810190506102f5565b50505050905090810190601f16801561033d5780820380516001836020036101000a031916815260200191505b50848103835287818151815260200191508051906020019080838360005b8381101561037657808201518184015260208101905061035b565b50505050905090810190601f1680156103a35780820380516001836020036101000a031916815260200191505b50848103825286818151815260200191508051906020019080838360005b838110156103dc5780820151818401526020810190506103c1565b50505050905090810190601f1680156104095780820380516001836020036101000a031916815260200191505b509850505050505050505060405180910390f35b34801561042957600080fd5b5061045e600480360381019080803573ffffffffffffffffffffffffffffffffffffffff169060200190929190505050610e4b565b6040518082815260200191505060405180910390f35b34801561048057600080fd5b50610489610e63565b6040518080602001828103825283818151815260200191508051906020019080838360005b838110156104c95780820151818401526020810190506104ae565b50505050905090810190601f1680156104f65780820380516001836020036101000a031916815260200191505b509250505060405180910390f35b34801561051057600080fd5b506105336004803603810190808035600019169060200190929190505050610f01565b604051808215151515815260200191505060405180910390f35b34801561055957600080fd5b50610598600480360381019080803573ffffffffffffffffffffffffffffffffffffffff16906020019092919080359060200190929190505050611130565b604051808215151515815260200191505060405180910390f35b3480156105be57600080fd5b50610613600480360381019080803573ffffffffffffffffffffffffffffffffffffffff169060200190929190803573ffffffffffffffffffffffffffffffffffffffff1690602001909291905050506112f2565b6040518082815260200191505060405180910390f35b34801561063557600080fd5b5061073c600480360381019080803590602001908201803590602001908080601f0160208091040260200160405190810160405280939291908181526020018383808284378201915050505050509192919290803590602001908201803590602001908080601f0160208091040260200160405190810160405280939291908181526020018383808284378201915050505050509192919290803590602001908201803590602001908080601f0160208091040260200160405190810160405280939291908181526020018383808284378201915050505050509192919290803573ffffffffffffffffffffffffffffffffffffffff169060200190929190505050611317565b604051808215151515815260200191505060405180910390f35b60008054600181600116156101000203166002900480601f0160208091040260200160405190810160405280929190818152602001828054600181600116156101000203166002900480156107ec5780601f106107c1576101008083540402835291602001916107ec565b820191906000526020600020905b8154815290600101906020018083116107cf57829003601f168201915b505050505081565b600081600560003373ffffffffffffffffffffffffffffffffffffffff1673ffffffffffffffffffffffffffffffffffffffff16815260200190815260200160002060008573ffffffffffffffffffffffffffffffffffffffff1673ffffffffffffffffffffffffffffffffffffffff168152602001908152602001600020819055508273ffffffffffffffffffffffffffffffffffffffff163373ffffffffffffffffffffffffffffffffffffffff167f6e11fb1b7f119e3f2fa29896ef5fdf8b8a2d0d4df6fe90ba8668e7d8b2ffa25e846040518082815260200191505060405180910390a36001905092915050565b60025481565b6000600460008573ffffffffffffffffffffffffffffffffffffffff1673ffffffffffffffffffffffffffffffffffffffff1681526020019081526020016000205482111515156109a5576040517f08c379a00000000000000000000000000000000000000000000000000000000081526004018080602001828103825260148152602001807f496e73756666696369656e742062616c616e636500000000000000000000000081525060200191505060405180910390fd5b600560008573ffffffffffffffffffffffffffffffffffffffff1673ffffffffffffffffffffffffffffffffffffffff16815260200190815260200160002060003373ffffffffffffffffffffffffffffffffffffffff1673ffffffffffffffffffffffffffffffffffffffff168152602001908152602001600020548211151515610a99576040517f08c379a00000000000000000000000000000000000000000000000000000000081526004018080602001828103825260148152602001807f496e73756666696369656e742062616c616e636500000000000000000000000081525060200191505060405180910390fd5b81600460008673ffffffffffffffffffffffffffffffffffffffff1673ffffffffffffffffffffffffffffffffffffffff1681526020019081526020016000206000828254039250508190555081600460008573ffffffffffffffffffffffffffffffffffffffff1673ffffffffffffffffffffffffffffffffffffffff1681526020019081526020016000206000828254019250508190555081600560008673ffffffffffffffffffffffffffffffffffffffff1673ffffffffffffffffffffffffffffffffffffffff16815260200190815260200160002060003373ffffffffffffffffffffffffffffffffffffffff1673ffffffffffffffffffffffffffffffffffffffff168152602001908152602001600020600082825403925050819055508273ffffffffffffffffffffffffffffffffffffffff168473ffffffffffffffffffffffffffffffffffffffff167fddf252ad1be2c89b69c2b068fc378daa952ba7f163c4a11628f55a4df523b3ef846040518082815260200191505060405180910390a3600190509392505050565b6003602052806000526040600020600091509050806000018054600181600116156101000203166002900480601f016020809104026020016040519081016040528092919081815260200182805460018160011615610100020316600290048015610cd95780601f10610cae57610100808354040283529160200191610cd9565b820191906000526020600020905b815481529060010190602001808311610cbc57829003601f168201915b505050505090806001015490806002018054600181600116156101000203166002900480601f016020809104026020016040519081016040528092919081815260200182805460018160011615610100020316600290048015610d7d5780601f10610d5257610100808354040283529160200191610d7d565b820191906000526020600020905b815481529060010190602001808311610d6057829003601f168201915b505050505090806003018054600181600116156101000203166002900480601f016020809104026020016040519081016040528092919081815260200182805460018160011615610100020316600290048015610e1b5780601f10610df057610100808354040283529160200191610e1b565b820191906000526020600020905b815481529060010190602001808311610dfe57829003601f168201915b5050505050908060040160009054906101000a900473ffffffffffffffffffffffffffffffffffffffff16905085565b60046020528060005260406000206000915090505481565b60018054600181600116156101000203166002900480601f016020809104026020016040519081016040528092919081815260200182805460018160011615610100020316600290048015610ef95780601f10610ece57610100808354040283529160200191610ef9565b820191906000526020600020905b815481529060010190602001808311610edc57829003601f168201915b505050505081565b60008060036000846000191660001916815260200190815260200160002060050160003373ffffffffffffffffffffffffffffffffffffffff1673ffffffffffffffffffffffffffffffffffffffff16815260200190815260200160002054141515610fd5576040517f08c379a00000000000000000000000000000000000000000000000000000000081526004018080602001828103825260148152602001807f41727469636c6520616c7265616479207265616400000000000000000000000081525060200191505060405180910390fd5b600160036000846000191660001916815260200190815260200160002060050160003373ffffffffffffffffffffffffffffffffffffffff1673ffffffffffffffffffffffffffffffffffffffff1681526020019081526020016000208190555061108e3360028054600460003073ffffffffffffffffffffffffffffffffffffffff1673ffffffffffffffffffffffffffffffffffffffff1681526020019081526020016000205481151561108757fe5b0402611130565b5061112660036000846000191660001916815260200190815260200160002060040160009054906101000a900473ffffffffffffffffffffffffffffffffffffffff16600a600254600460003073ffffffffffffffffffffffffffffffffffffffff1673ffffffffffffffffffffffffffffffffffffffff1681526020019081526020016000205481151561111f57fe5b0402611130565b5060019050919050565b600081600460003373ffffffffffffffffffffffffffffffffffffffff1673ffffffffffffffffffffffffffffffffffffffff16815260200190815260200160002054101515156111e9576040517f08c379a00000000000000000000000000000000000000000000000000000000081526004018080602001828103825260148152602001807f496e73756666696369656e742062616c616e636500000000000000000000000081525060200191505060405180910390fd5b81600460003373ffffffffffffffffffffffffffffffffffffffff1673ffffffffffffffffffffffffffffffffffffffff1681526020019081526020016000206000828254039250508190555081600460008573ffffffffffffffffffffffffffffffffffffffff1673ffffffffffffffffffffffffffffffffffffffff168152602001908152602001600020600082825401925050819055508273ffffffffffffffffffffffffffffffffffffffff163373ffffffffffffffffffffffffffffffffffffffff167fddf252ad1be2c89b69c2b068fc378daa952ba7f163c4a11628f55a4df523b3ef846040518082815260200191505060405180910390a36001905092915050565b6005602052816000526040600020602052806000526040600020600091509150505481565b6000806113226117ba565b868686866040516020018085805190602001908083835b60208310151561135e5780518252602082019150602081019050602083039250611339565b6001836020036101000a03801982511681845116808217855250505050505090500184805190602001908083835b6020831015156113b1578051825260208201915060208101905060208303925061138c565b6001836020036101000a03801982511681845116808217855250505050505090500183805190602001908083835b60208310151561140457805182526020820191506020810190506020830392506113df565b6001836020036101000a0380198251168184511680821785525050505050509050018273ffffffffffffffffffffffffffffffffffffffff1673ffffffffffffffffffffffffffffffffffffffff166c010000000000000000000000000281526014019450505050506040516020818303038152906040526040518082805190602001908083835b6020831015156114b1578051825260208201915060208101905060208303925061148c565b6001836020036101000a0380198251168184511680821785525050505050509050019150506040518091039020915060a060405190810160405280888152602001836000191681526020018781526020018681526020018573ffffffffffffffffffffffffffffffffffffffff1681525090508060036000898989896040516020018085805190602001908083835b6020831015156115655780518252602082019150602081019050602083039250611540565b6001836020036101000a03801982511681845116808217855250505050505090500184805190602001908083835b6020831015156115b85780518252602082019150602081019050602083039250611593565b6001836020036101000a03801982511681845116808217855250505050505090500183805190602001908083835b60208310151561160b57805182526020820191506020810190506020830392506115e6565b6001836020036101000a0380198251168184511680821785525050505050509050018273ffffffffffffffffffffffffffffffffffffffff1673ffffffffffffffffffffffffffffffffffffffff166c010000000000000000000000000281526014019450505050506040516020818303038152906040526040518082805190602001908083835b6020831015156116b85780518252602082019150602081019050602083039250611693565b6001836020036101000a0380198251168184511680821785525050505050509050019150506040518091039020600019166000191681526020019081526020016000206000820151816000019080519060200190611717929190611803565b50602082015181600101906000191690556040820151816002019080519060200190611744929190611803565b506060820151816003019080519060200190611761929190611803565b5060808201518160040160006101000a81548173ffffffffffffffffffffffffffffffffffffffff021916908373ffffffffffffffffffffffffffffffffffffffff160217905550905050600192505050949350505050565b60a06040519081016040528060608152602001600080191681526020016060815260200160608152602001600073ffffffffffffffffffffffffffffffffffffffff1681525090565b828054600181600116156101000203166002900490600052602060002090601f016020900481019282601f1061184457805160ff1916838001178555611872565b82800160010185558215611872579182015b82811115611871578251825591602001919060010190611856565b5b50905061187f9190611883565b5090565b6118a591905b808211156118a1576000816000905550600101611889565b5090565b905600a165627a7a7230582085debdf1477b77a845fede968ad69c8a374edf1e0251e4a4937d82f91c3aa4880029",
  "source": "pragma solidity ^0.4.24; // Set compiler version\n\n// Token contract\ncontract Facito {\n    string public name = \"Facito\"; // Name\n    string public symbol = \"FAC\"; // Symbol\n    uint256 public totalSupply; // Store total supply\n\n    mapping(bytes32 => Article) public articles; // Store articles\n\n    event Transfer (\n        address indexed _from,\n        address indexed _to,\n        uint256 _value\n    );\n\n    event Approve (\n        address indexed _owner,\n        address indexed _spender,\n        uint256 _value\n    );\n\n    struct Article {\n        string Title;\n        bytes32 ID;\n        string Content;\n        string HeaderSource;\n        address Author;\n        mapping(address => uint) UnspentOutputs;\n    }\n\n    mapping(address => uint256) public balanceOf;\n    mapping(address => mapping(address => uint256)) public allowance;\n\n    constructor(uint256 _initialSupply) public {\n        balanceOf[this] = _initialSupply; // Set contract balance\n        totalSupply = _initialSupply; // Set total supply\n    }\n\n    function transfer(address _to, uint256 _value) public returns (bool success) {\n        require(balanceOf[msg.sender] >= _value, \"Insufficient balance\"); // Check for invalid balance\n\n        balanceOf[msg.sender] -= _value; // Set sender balance\n        balanceOf[_to] += _value; // Set recipient balance\n\n        emit Transfer(msg.sender, _to, _value); // Emit transfer event\n\n        return true; // Return success\n    }\n\n    function approve(address _spender, uint256 _value) public returns (bool success) {\n        allowance[msg.sender][_spender] = _value; // Set allowance\n\n        emit Approve(msg.sender, _spender, _value); // Emit approve event\n\n        return true; // Return success\n    }\n\n    function transferFrom(address _from, address _to, uint256 _value) public returns (bool success) {\n        require(_value <= balanceOf[_from], \"Insufficient balance\"); // Check allowance is valid\n        require(_value <= allowance[_from][msg.sender], \"Insufficient balance\"); // Check allowance is valid\n\n        balanceOf[_from] -= _value; // Remove from sender\n        balanceOf[_to] += _value; // Add to destination\n\n        allowance[_from][msg.sender] -= _value; // Remove allowance\n\n        emit Transfer(_from, _to, _value); // Emit transfer event\n\n        return true; // Return success\n    }\n\n    function newArticle(string _title, string _content, string _headerSource, address _author) public returns (bool success) {\n        bytes32 _id = keccak256(abi.encodePacked(_title, _content, _headerSource, _author)); // Hash ID\n        \n        Article memory article = Article(_title, _id, _content, _headerSource, _author); // Initialize article\n\n        articles[keccak256(abi.encodePacked(_title, _content, _headerSource, _author))] = article; // Push new article\n\n        return true; // Return success\n    }\n\n    function readArticle(bytes32 _id) public returns (bool success) {\n        require(articles[_id].UnspentOutputs[msg.sender] == 0, \"Article already read\"); // Check article hasn't already been read\n\n        articles[_id].UnspentOutputs[msg.sender] = 1; // Set spent\n\n        transfer(msg.sender, (balanceOf[this]/totalSupply)*2); // Transfer coins to reader\n        transfer(articles[_id].Author, (balanceOf[this]/totalSupply)*10); // Transfer coins to author\n\n        return true; // Return success\n    }\n}",
  "sourcePath": "/Users/dowlandaiello/Desktop/GitHub/facito/crypto/contracts/Facito.sol",
  "compiler": {
    "name": "solc",
    "version": "0.4.24+commit.e67f0147.Emscripten.clang"
  },
  "schemaVersion": "2.0.1",
  "updatedAt": "2018-09-30T05:16:19.038Z"
}